:020000040800F2
:1000000070500020810200080317000853160008F2
:1000100001170008B1030008BD1900080000000026
:10002000000000000000000000000000C101000806
:10003000C1030008000000001D02000801180008AC
:100040009B0200089B0200089B0200089B0200081C
:100050009B0200089B0200089B0200089B0200080C
:100060009B0200089B0200089B0200089B020008FC
:100070009B0200089B0200089B0200089B020008EC
:100080009B0200089B0200089B0200089B020008DC
:10009000B50300089B0200089B0200089B020008B1
:1000A0009B0200089B0200089B0200089B020008BC
:1000B0009B0200089B0200089B0200089B020008AC
:1000C0009B0200089B0200089B0200089B0200089C
:1000D0009B0200089B0200089B0200089B0200088C
:1000E0009B0200089B0200089B0200089B0200087C
:1000F0009B0200089B0200089B0200089B0200086C
:100100009B0200089B0200089B0200089B0200085B
:100110009B0200089B020008E91800089B020008E7
:100120009B0200089B0200089B0200089B0200083B
:100130009B0200089B0200089B0200089B0200082B
:100140009B0200089B0200089B0200089B0200081B
:100150009B0200089B0200089B0200089B0200080B
:100160009B0200089B0200089B0200089B020008FB
:100170009B0200089B0200089B0200080000000090
:100180009B0200089B0200089B0200089B020008DB
:100190009B0200089B0200089B0200089B020008CB
:1001A00000000000000000009B020008DFF80CD0F7
:1001B00000F0ECF800480047D11A00087050002009
:1001C0002C4B19680868B0E8F04F80F30988BFF33A
:1001D0006F8F4FF0000080F311887047000000001F
:1001E00008480068006880F308884FF0000080F33A
:1001F000148862B661B6BFF34F8FBFF36F8F00DF15
:1002000000BF00BF08ED00E0DFF80C00016841F41A
:1002100070010160704700BF88ED00E0EFF30980D6
:10022000BFF36F8F134B1A681EF0100F08BF20ED3D
:10023000108A20E9F04F106009B44FF0500080F3AD
:100240001188BFF34F8FBFF36F8F02F061FC4FF047
:10025000000080F3118809BC19680868B0E8F04F05
:100260001EF0100F08BFB0EC108A80F30988BFF3AE
:100270006F8F704724000020EFF305807047000067
:100280000648804706480047FEE7FEE7FEE7FEE730
:10029000FEE7FEE7FEE7FEE7FEE7FEE7CD18000813
:1002A000AD0100082DE9F05F0546002092469B460F
:1002B00088460646814640241BE02846414647467C
:1002C000224600F053F853465A46C01A914110D3C3
:1002D00011461846224600F03AF82D1A67EB01083D
:1002E0004F4622460120002100F031F817EB0009AB
:1002F0004E41201EA4F10104DFDC484631462A4667
:100300004346BDE8F09F40EA01039B0703D009E0A4
:1003100008C9121F08C0042AFAD203E011F8013BF1
:1003200000F8013B521EF9D27047D2B201E000F84A
:10033000012B491EFBD270470022F6E710B5134689
:100340000A4604461946FFF7F0FF204610BD202A52
:1003500004DB203A00FA02F1002070479140C2F11C
:10036000200320FA03F3194390407047202A04DB4E
:10037000203A21FA02F00021704721FA02F3D0401E
:10038000C2F120029140084319467047064C074DC0
:1003900006E0E06840F0010394E807009847103455
:1003A000AC42F6D3FFF706FF84350008A4350008F9
:1003B000FEE70000014800F076B90000540100207B
:1003C000704790F82020012A07D0022A05D0416A00
:1003D00041F48021416201207047006842690A436C
:1003E000426100207047F0B590F820500468A4687E
:1003F000012D05D0022D03D0416A41F4802153E044
:1004000014F0406F01D1E5004BD5C4F30164022C18
:1004100003D9416A41F4000146E00125A5401D6071
:100420008D684FF4C0739DB1CE6835434E6845EA80
:10043000C605066803EB0417F5514FF4C27507684B
:1004400005EB04150E697E51097D012905D009E0EF
:100450000E88CD6845EA4655EBE701684E5946F4EB
:1004600080764E511179D2F805504FF4C67641EAA4
:100470000525016806EB04168D511178D2F801208C
:100480004FF4C47541EA0221026805EB041551518D
:10049000006803EB0411425842F001024250002070
:1004A000F0BD416A41F4001141620120F0BD00003D
:1004B00010B590F82020012A07D0022A05D0416A01
:1004C00041F480214162012010BD3B48D0F8002258
:1004D00042F00102C0F80022D0F8002222F47C523F
:1004E000C0F80022D0F800224B6A42EA0322C0F88A
:1004F00000220A7D02F01F0301229A40D0F81C322C
:100500009343C0F81C32CB69B3B9D0F80C32934393
:10051000C0F80C328C894B6864F31F434C6900EBC4
:10052000C404C4F840320C890B6864F31F434C695F
:1005300000EBC404C4F84432CB69012B16D1D0F8C7
:100540000C321343C0F80C320C884B6864F31F4321
:100550004C6900EBC404C4F840320C89CB6864F3E6
:100560001F434C6900EBC404C4F844328B69002B70
:10057000D0F804320ED01343C0F804320B69002BBC
:10058000D0F8143208D01343C0F81432096A012994
:1005900004D008E09343EFE79343F5E7D0F81C124B
:1005A0001143C0F81C12D0F8001221F00101C0F86C
:1005B0000012002010BD000000640040704730B5FC
:1005C00090F82040012C05D0022C03D0416A41F460
:1005D00080215DE00468002955D02469A40754D027
:1005E0004FF4D874056804EB01142D5915F0040577
:1005F000956005682D594ED0ED08556005682C5959
:1006000004F00204D4604FF4DA74056804EB0114BA
:100610002D5905F00F05156105682D59C5F30725FE
:10062000956105682C59240C54614FF4DC72046800
:1006300002EB0112A4581C700468A458240A5C70D0
:100640000468A458240C9C700468A258120EDA7036
:100650004FF4DE72046802EB0112A4581C710468A6
:10066000A458240A5C710468A458240C9C71046882
:10067000A258120EDA71006881B1016941F02001BF
:100680000161002030BDE468A8E7416A41F400112F
:100690004162012030BD6D0D1560AFE7C16841F0CA
:1006A0002001C160EDE72DE9F05F054600680024F8
:1006B0004669D0F804908768D0F80CB0D0F810A044
:1006C000D0F81880F10748D0F90714D001218160D3
:1006D000B80703D5284600F022FA0CE0780702D5C7
:1006E0004FF4006407E0380702D54FF4805402E06D
:1006F000284600F013FAF80516D529684FF48070E3
:100700008860B80503D5284600F00BFA0CE07805A0
:1007100002D544F4005407E0380502D544F480447F
:1007200002E0284600F0FCF9F80316D529684FF4DA
:1007300080308860B80303D5284600F0F4F90CE057
:10074000780302D544F4004407E0380302D544F4AA
:10075000803402E0284600F0E5F9300707D55FEA6B
:10076000CB6004D52968102044F40074C860700779
:100770004FF0080707D55FEA0B7004D52868C760FB
:10078000284600F057F9B00706D52868C0688007EA
:1007900002D0284600F050F9700607D55FEACA601B
:1007A00004D52968102044F480640861B00607D598
:1007B0005FEA0A7004D528680761284600F07EF9D0
:1007C000F00606D528680069800702D0284600F0A8
:1007D00076F9B00308D55FEAC96005D5296810200D
:1007E0004860284600F06CF9F00307D55FEA09700D
:1007F00004D528684760284600F096F9300446D5AD
:100800005FEA497040D5F00504D55FEAC87001D0B1
:1008100044F00104B00504D55FEA887001D544F0C6
:100820000204700504D55FEA487001D544F0040461
:10083000300529D518F0700F26D008F07000402838
:1008400015D006DC102809D020280AD0302816D16F
:100850000AE050280ED0602811D10EE044F00804C0
:100860000DE044F010040AE044F0200407E044F0F6
:10087000400404E044F0800401E044F480742868FB
:10088000816921F070018161296804204860002C91
:1008900005D0686A204368622846FFF78FFEBDE8EE
:1008A000F09F70B5040003D094F8200010B104E06C
:1008B000012070BD204600F081F82068016821F019
:1008C0000201016000F034FA0546052604E000F05C
:1008D0002FFA401B0A2811D8206840688007F6D4F8
:1008E0002068016841F00101016000F021FA05462D
:1008F0000BE000F01DFA401B0A2806D9606A40F49C
:100900000030606284F82060D2E720684068C00749
:10091000EFD0207E0128206801683DD021F08001C1
:100920000160607E01282068016838D021F0400114
:100930000160A07E01282068016833D021F02001E9
:100940000160E07E0128206801682ED041F010018E
:100950000160207F01282068016829D021F008016A
:100960000160607F01282068016824D021F0040123
:100970000160D4E902010843D4E904121143084399
:100980006168491E08432168C86100206062012037
:1009900084F82000002070BD41F08001C0E741F0E4
:1009A0004001C5E741F02001CAE721F01001CFE77F
:1009B00041F00801D4E741F00401D9E710B586B051
:1009C000044614216846FFF7B7FC1749206888429F
:1009D00027D116480021026842F0007202600068C8
:1009E00000F00070059011481038026842F00802CB
:1009F00002600068022200F0080005900320CDE9A3
:100A00000210CDE90002092004906946084800F070
:100A10009FF800220521142000F016FA142000F09F
:100A200005FA06B010BD00000064004040380240E6
:100A3000000C02407047000010B51C4C2368196878
:100A4000814231D19A6800211433FFF7B8FD206844
:100A500002210068FFF7B5FC216888680068A0F5EE
:100A60000072013A05D0012A03D0022A01D0032ADC
:100A70001AD10F4A401EC0B2107000EB400202EBC8
:100A8000C0020C4800EB8200826A531C8362322A47
:100A900002D801F017F801E000F0EEFF2168BDE890
:100AA0001040054800F0E8BF10BD0000A000002085
:100AB0009C000020A40000207C01002070477047AB
:100AC0007047000070B5044690F82000012804D05B
:100AD000606A40F40020606218E0022084F8200080
:100AE0002068016821F00101016000F021F905464C
:100AF0000EE000BF00F01CF9401B0A2808D9606A0C
:100B000040F400306062052084F82000012070BDB0
:100B100020684068C007EDD1606270BD70477047C3
:100B200070477047704770477047000070B50446C3
:100B300000F0FEF80546601C02D00448007804442A
:100B400000F0F6F8401BA042FAD370BD140000205C
:100B50002DE9F84F00224FF0010803254FF00F0E4A
:100B60000B6808FA02F42340A3426ED14E68012EAE
:100B700005D0022E03D0112E01D0122E12D186687C
:100B80004FEA420C05FA0CF7BE43CF6807FA0CF7A0
:100B9000374387604668A6430C79C4F30014944039
:100BA00034434460C668570005FA07FC8C6826EA9F
:100BB0000C06BC403443C4604C68022C01D0122C9B
:100BC00013D1D40800EB8404A346D4F82090540732
:100BD0004FEAD46A0EFA0AF629EA06090E6906FAFD
:100BE0000AF646EA0906CBF8206004680E7924EA82
:100BF0000C0406F00306BE40264306604C68E40081
:100C00006FD53B4C266846F480462660246822F067
:100C1000030604F480440094364C3444A446D4F8CB
:100C200008489607360F0EFA06F7BC43324FB84213
:100C300001D100272EE0314FB84201D1012729E030
:100C40002F4FB84202D1022724E04AE02D4FB8428C
:100C500001D103271EE02C4FB84201D1042719E02F
:100C60002A4FB84201D1052714E0294FB84201D1DB
:100C700006270FE0274FB84201D107270AE0264F89
:100C8000B84201D1082705E0244FB84201D1092715
:100C900000E00A27B7402743CCF80878204E346894
:100CA0004F689C43FF0300D51C4334601C4E361D27
:100CB00034684F689C43BF0300D51C433460184E12
:100CC000083634684F689C43FF0200D51C433460EB
:100CD000134E0C3634684F689C43BF0200D51C434A
:100CE0003460521C102AFFF43BAFBDE8F88F0000BF
:100CF000443802400030014000000240000402403D
:100D000000080240000C02400010024000140240A3
:100D100000180240001C0240002002400024024053
:100D2000003C01400AB1816170470904FBE7000003
:100D30000148806870470000140000200248816864
:100D40000278114481607047140000200B4810B5F0
:100D5000016841F400710160016841F48061016043
:100D6000016841F480710160032000F08DF80020DB
:100D700000F006F800F03EF8002010BD003C0240F4
:100D800010B5014688B00022362000F05DF836200C
:100D900000F04CF813480024016841F01001016094
:100DA000006805A900F010000690684600F050F9B0
:100DB00000F06EF90C494000B0FBF1F10C480B4A11
:100DC000491E026040F2E732C0E90324C0E9011481
:100DD00000F050FB10B1012008B010BD044800F035
:100DE00065FBF9E74038024040420F000010004028
:100DF000A80100200C4882B0016841F480410160E4
:100E0000006800F4804000900748001F016841F02E
:100E1000805101600068002200F0805000900F2196
:100E2000901E02B000F010B844380240002809DBE0
:100E300000F01F02012191404009800000F1E020F4
:100E4000C0F8001170470000F0B40E4B1B680C4650
:100E5000C3F30223C3F10705042D00D90425191D8E
:100E6000072901D2002300E0DB1E012606FA05F166
:100E7000491E214099409E40761E16403143F0BCE9
:100E800000F09DBD0CED00E0064900F00702086887
:100E90004FF6FF03184040EA0220034A104308605F
:100EA000704700000CED00E00000FA052DE9F84362
:100EB0001748016841F0805101600068154F00F04B
:100EC0008050012600903E64FFF732FF05464FF444
:100ED0007A78114C05E000BFFFF72AFF401B404520
:100EE0000DD86068C003F7D57E64FFF721FF054683
:100EF000464607E0FFF71CFF401BB04202D9032023
:100F0000BDE8F88360688003F4D50020F8E70000AE
:100F10004038024000000E42007000402DE9F047CA
:100F20000E46050065D0DFF81481D8F80000F7B24E
:100F300000F00F00B04207D288F80070D8F8000027
:100F400000F00F00B04254D128683D4C810712D503
:100F5000400703D5206840F4E0502060287800075F
:100F600003D5206840F4604020602068A96820F024
:100F7000F000084320602878C0072DD03049686809
:100F80000839012812D0022813D0032811D009688B
:100F9000890700292DDA216821F00301014321602E
:100FA000FFF7C6FE814641F2883A0EE009688903E0
:100FB000EFE709688901ECE7FFF7BAFEA0EB09014A
:100FC000514502D90320BDE8F0872068696800F028
:100FD0000C00B0EB810FEFD1D8F80010404601F0C3
:100FE0000F01B14207D90770006800F00F00B0424E
:100FF00001D00120E7E72878400705D52068E96897
:1010000020F4E050084320602878000706D52068C7
:10101000296920F4604040EAC100206000F048F8EF
:101020002168084AC1F30311515CC84006490860B1
:1010300006480068FFF7A4FE0020C4E7003C024019
:101040000838024060350008200000201800002009
:101050000F2202600C4A136803F003034360136815
:1010600003F0F0038360136803F4E053C360126875
:101070004FF4E05303EAD20202610448006800F032
:101080000F0008607047000008380240003C024032
:101090000448054900680968044AC1F38221515C8B
:1010A000C840704720000020083802407035000812
:1010B000154810B5006810F00C02144813D01449FC
:1010C000042A0FD0082A0ED10F4C241F226823684F
:1010D00002F03F025B0207D52068C0F38810A0FB36
:1010E000010106E0084610BD2168C1F38811A1FB8B
:1010F00000010023FFF7D6F82168C1F30141491C24
:101100004900B0FBF1F010BD083802400024F400A3
:10111000001BB7002DE9F84F04006ED02078DFF8EF
:101120003C93C007A9F104054AD009F10400016805
:10113000C1F38101012908D00068C0F381000228B1
:101140000AD1D9F80000400206D52868800337D5B7
:1011500060680028E1D033E06068B0F5803F10D0CF
:10116000B0F5A02F286810D020F4803028602868BF
:1011700020F4802028606068A8B1FFF7D9FD0646FA
:101180000DE0286840F48030F4E740F480202860C7
:10119000F7E700BFFFF7CCFD801B642873D82868F1
:1011A0008003F7D50CE0FFF7C3FD064605E000BF5E
:1011B000FFF7BEFD801B6428F0D828688003F7D4B1
:1011C0002078DFF89C8280074FF0000A3ED5A348C4
:1011D000001D016811F00C0F08D00068C0F38100F9
:1011E00002280BD1D9F80000400207D428688007F4
:1011F00016D5E068012800D112E02BE1E068B8B113
:101200000120C8F80000FFF793FD064605E000BF87
:10121000FFF78EFD801B0228C0D828688007F7D50D
:101220002868216920F0F80040EAC10028600DE03C
:10123000C8F800A0FFF77CFD064604E0FFF778FD44
:10124000801B02281FD828688007F7D42078000761
:1012500022D5824E83486169703671B101210160E7
:10126000FFF766FD074604E0FFF762FDC01B02289A
:1012700009D830688007F7D50EE0C0F800A0FFF766
:1012800057FD074605E082E0FFF752FDC01B02282C
:101290007DD830688007F7D42078400768D5DFF81C
:1012A000BCB100270BF13C0BDBF80000C0000BD4F5
:1012B000DBF8001041F08051CBF80010DBF80000A3
:1012C000012700F080500090674E3068C00510D4B0
:1012D000306840F480703060FFF72AFD009005E030
:1012E000FFF726FD0099401A022850D83068C00543
:1012F000F6D55A4EA0686C3601280FD00528306804
:1013000010D020F001003060306820F00400306020
:10131000A068B8B1FFF70CFD00900FE0306840F016
:101320000100F4E740F004003060F7E7FFF700FD4C
:101330000099411A41F28830814266D830688007AE
:10134000F4D50EE0FFF7F4FC009007E0FFF7F0FCA7
:101350000099411A41F28830814256D8306880079E
:10136000F4D42FB1DBF8001021F08051CBF800103D
:10137000A069C8B33949091D0968C1F3810102296F
:101380004AD00228504607D0C8F8600000E03CE090
:10139000FFF7CEFC04463BE04746C8F86000FFF785
:1013A000C7FC064605E000BFFFF7C2FC801B022811
:1013B0002BD828688001F7D4D4E907010843A16A33
:1013C0002A4A490802EB0141626A41EA8211084354
:1013D00094F82C1040EA0161C9F800100120386629
:1013E000FFF7A6FC044606E036E000BFFFF7A0FCCE
:1013F000001B022809D828688001F7D52CE000BF1F
:10140000FFF796FC001B022802D90320BDE8F88FE5
:1014100028688001F4D41FE00128F7D0D9F8000033
:10142000E26900F48001914214D1226A00F03F0188
:1014300091420FD147F6C071626A0140914209D1D1
:10144000A26A00F44031914204D1E16A00F0706078
:10145000884201D00120D9E70020D7E704380240B4
:1014600000004742800E4742007000400000FFFF2E
:101470007047704710B5040003D094F83D0010B1D8
:1014800007E0012010BD002084F83C00204600F059
:101490000CF8022084F83D00211D206800F02AFA93
:1014A000012084F83D00002010BD70470168CA6823
:1014B00042F00102CA600068816801F00701062954
:1014C00003D0016841F001010160002070477047BE
:1014D00070B50446006801694FF00005C9438907EB
:1014E00015D4C168C943890711D4E91E01610120DF
:1014F0002077206880698007204602D0FFF7E7FF49
:1015000004E000F098F8204600F096F8257720686F
:101510000169C943490717D4C168C943490713D4AE
:101520006FF004010161022020772068806910F4C7
:10153000407F204602D0FFF7CAFF04E000F07BF8AE
:10154000204600F079F8257720680169C94309072A
:1015500016D4C168C943090712D46FF008010161AC
:10156000042020772068C0698007204602D0FFF75A
:10157000AEFF04E000F05FF8204600F05DF825774C
:1015800020680169C943C90617D4C168C943C9069F
:1015900013D46FF010010161082020772068C06922
:1015A00010F4407F204602D0FFF791FF04E000F0E6
:1015B00042F8204600F040F8257720680169C943C9
:1015C000C90708D1C168C943C90704D1891E01618F
:1015D000204600F033F820680169C943090609D4A0
:1015E000C168C943090605D46FF080010161204636
:1015F000FFF73EFF20680169C943490609D4C16865
:10160000C943490605D46FF040010161204600F04E
:101610001FF820680169C94389060BD4C168C94312
:10162000890607D46FF0200101612046BDE87040B3
:10163000FFF71FBF70BD7047704700000068034987
:10164000884201D1FFF77ABB7047000000100040CC
:101650007047FEE70E4810B50C4901600921416052
:1016600000214FF400328160C0E90312416101762C
:10167000012242768176C17601774177FFF711F931
:10168000002801D072B6FEE710BD000000640040E3
:101690005401002030B587B014216846FEF74CFE97
:1016A00015480024016841F001010160016801F062
:1016B00001010591016841F008010160016801F034
:1016C00008010591016841F08001016000680B4D3F
:1016D00000F080000590012214212846FFF722FB2C
:1016E00001211420CDE90214CDE900016946284604
:1016F000FFF72EFA07B030BD30380240001C024020
:10170000FEE7FEE730B4034C4466034C846630BC0D
:1017100000F094BB3D1E00084B1E00082DED028B0F
:1017200082B09FED318ADFED318A314D002444F6DD
:10173000206600BF04EBC40000EB400005EB800016
:10174000B0EE481AF0EE680AB7EE080A32463346A1
:101750000321FFF7D7FF641C042CEBDB254E264F3B
:101760005FF0000456F8240000EE100A04EB440079
:1017700000EBC400F8EEC00A37F9200000EE100AB2
:1017800004EBC40000EB4000B8EEC00A05EB80009B
:1017900000F072FA641C042CE4DB95ED600ABDEEE7
:1017A000C00A10EE100A00B2009095ED450ABDEE99
:1017B000C00A10EE100A95ED2A0A03B2BDEEC00A67
:1017C00010EE100A95ED0F0A02B2BDEEC00A10EE3F
:1017D000100A01B209480068006800F085FF0A207D
:1017E00000F0A6F9BCE7000000000000CDCCCC3D25
:1017F000BC4A002004000020A4000020A00000201B
:1018000010B5502080F31188BFF34F8FBFF36F8F57
:1018100001F0F2FC18B104494FF08050086000203C
:1018200080F3118810BD000004ED00E030B593B0E6
:1018300030216846FEF780FD14210CA8FEF77CFDE0
:1018400020480025016841F080510160006800F0E7
:10185000805011901C48016841F4404101600068CB
:10186000022400F4404011900120009000040190F7
:101870008001CDE9064006200890B420CDE9090496
:1018800004200B906846FFF745FC08B172B6FEE7EE
:10189000FFF70CFB08B172B6FEE70CA90F2081E838
:1018A00031004FF4A0500F904FF48050109005215C
:1018B0000CA8FFF733FB002801D072B6FEE713B087
:1018C00030BD00004038024000700040054801680B
:1018D00041F47001016003494FF0006080390860F5
:1018E0007047000088ED00E00148FFF7F1BD0000FF
:1018F000A8010020F0B50268254C264D264E274F42
:10190000274B4FF0804CA04209D0604507D0A84239
:1019100005D0B04203D0B84201D0984204D122F0A1
:10192000700E4A6842EA0E02A0421BD0604519D0F0
:10193000A84217D0B04215D0B84213D0984211D067
:10194000184DA8420ED0184DA8420BD0174DA842F2
:1019500008D0174DA84205D0164DA84202D0164D0A
:10196000A84203D122F44075CA682A434D6922F087
:1019700080022A4302608A68C2620A688262A042C8
:1019800001D0984201D10969016301214161F0BD93
:10199000000001400004004000080040000C00402E
:1019A0000004014000400140004401400048014063
:1019B00000180040001C004000200040FEE709071E
:1019C000090E002804DB00F1E02080F800147047C5
:1019D00000F00F0000F1E02080F8141D704702E0D5
:1019E00008C8121F08C1002AFAD1704770470020AA
:1019F00001E001C1121F002AFBD17047D0ED000A9F
:101A0000F4EEC00AF1EE10FA01DD80ED000AD0ED2F
:101A1000000AB1EE400AF4EEC00AF1EE10FA01D26B
:101A200080ED000A7047000010B540F2DC50FFF76F
:101A30007DF8202000F0D6FD0D4C0E49206001609D
:101A40001C2000F0CFFD21688860182000F0CAFD3E
:101A500021684860086800F057F820680068FFF7C0
:101A600031F8206802210068BDE81040FEF7A9BCEB
:101A7000A00000205401002030B5048944818A8AE6
:101A80006FF0040552BA0281CB8A5BBA43800380AF
:101A90000B8B5BBA1BB293FBF5F38380897E81715C
:101AA000131B0169B3F5805F01DD491E03E013F5E7
:101AB000805F01DA491C016102EB41318289891A98
:101AC000416130BD898A49BA018181817047000036
:101AD000FFF73CF9FFF7AAFEFFF7DCFDFFF7BAFDC1
:101AE000FFF7A2FF00F03EF8044A0021044800F08E
:101AF00071F80449086000F04FF8FEE73C35000833
:101B00001D1700080000002000B58BB00021012245
:101B1000CDE9061205910091019102910391049182
:101B20000E21CDE908216946FEF7C2FC0BB000BDCD
:101B300010B5EFF3058179B9EFF3108111B9EFF327
:101B4000118119B106490968022905D0002408B19C
:101B500000F02AFF204610BD6FF00504FAE70000F0
:101B600074000020EFF3058068B9EFF31082094993
:101B7000086812B9EFF311820AB1022803D028B124
:101B80004FF0FF3070476FF005007047012008608C
:101B9000002070477400002010B5EFF3058070B985
:101BA000EFF310820A49086812B9EFF311820AB103
:101BB000022804D0012805D04FF0FF3010BD6FF08F
:101BC000050010BD0220086000F056FF002010BD87
:101BD000740000202DE9FF414FEA01034FF000059A
:101BE000EFF30581039599BBEFF3108111B9EFF382
:101BF000118119B11F490968022938D040B38026E4
:101C0000182100244AB3176807B13C4697691FB1F1
:101C100039467F1E382F02D21779FF0703D00020E4
:101C200004B0BDE8F081576907B1BE08D2F808C01A
:101C3000BCF1000F0DD0D5685C2D18D312693AB1F4
:101C400037B18DE806103246214601F096FA03902E
:101C50000DE0D7685FB912694AB903AACDE900124D
:101C6000B2B2214601F05CFA012800D00395039836
:101C7000D6E700007400002000B530EEC01A80EDF9
:101C8000080AC0ED050A80ED0B1AD0ED141A0146C2
:101C90009FED692A30EEC00AF5EEC01AB1EE400A97
:101CA000F1EE10FA0ED0B5EEC01AF1EE10FA02DD28
:101CB000F0EE410A01E0F0EE400AF4EEE10AF1EE46
:101CC00010FA12DCD1ED150AF5EEC00AF1EE10FAA9
:101CD0000ED0B5EEC01AF1EE10FA01DDB0EE410AF9
:101CE000B4EEE00AF1EE10FA02D2B0EE420A00BD04
:101CF000886D01F13402032802D0042838D07AE03C
:101D000091ED000A104620EE010A81ED0C0A91EDDA
:101D10000D0AD1ED010A00EE810A81ED0D0A91ED67
:101D20000A0AD1ED020A31EE400A20EE200A81EDC6
:101D30000E0A91ED180AB8EE400AFFF75FFE91ED2A
:101D40000C0AD1ED0D0A01F13C0030EE200AD1ED74
:101D50000E0A30EE200A81ED0F0A91ED170AB8EE57
:101D6000400AFFF74BFE91ED0F0A81ED100A42E0A9
:101D700091ED0A0AD1ED001A104671EE400A60EEAC
:101D8000A10AC1ED0C0AD1ED010A60EE810AC1ED94
:101D90000D0AF0EE000A00EE601A91ED090AD1ED8D
:101DA000020A31EE000A20EE200A81ED0E0A91EDC2
:101DB000180AB8EE400AFFF721FE91ED0C0AD1EDAA
:101DC0000D0A01F1480030EE200AD1ED0E0A30EE86
:101DD000200A81ED110AD1ED130A30EE800A81ED5F
:101DE000120A91ED170AB8EE400AFFF707FE91EDCF
:101DF000120A81ED130A91ED0A0A81ED090A91EDAB
:101E00000B0A81ED0A0A91ED070A81ED060A91EDB0
:101E1000080A81ED070A91ED040A81ED030A91EDAC
:101E2000050A81ED040A886D032802D091ED120A9B
:101E300000BD91ED0F0A00BD0000000000F1580C3C
:101E40008CE80E0080EC030A704780EC030A7047B0
:101E50002DE9F041134C0F46054666692068001DC8
:101E600000F072FC681C07D137B12168BDE8F04171
:101E70000D48091D00F0B8BC20683544B5424560E6
:101E8000216805D2A068BDE8F041091D00F094BCAE
:101E90006068091D00F090FC206B854200D225632C
:101EA000BDE8F08124000020D80600202DE9F04193
:101EB000054600F0A5FC2D4C2069401C20612068DF
:101EC0002B4F10B1E06930B32BE025602069012869
:101ED00027D1002606EB860007EB800000F05EFCB1
:101EE000761C382EF6D3234800F058FC21481430D5
:101EF00000F054FC1F48283000F050FC1D483C30D6
:101F000000F04CFC1B48503000F048FC1948606061
:101F10001430A06005E02068E96AC06A884200D8F1
:101F20002560E06A401CE0626864E86AA169884252
:101F300000D9A06100EB800007EB8000291D00F0B4
:101F400053FC00F07DFCE06900280CD02068E96AB1
:101F5000C06A884207D208494FF080500860BFF33A
:101F60004F8FBFF36F8FBDE8F08100002400002089
:101F7000280200208806002004ED00E038B500F0BB
:101F80003FFC104CA068C8B90F4800F007FC0E4891
:101F9000143000F003FC0C482060143060600A4BE1
:101FA00000202833009003F1500210210A2000F095
:101FB0005BFEA06010B105A100F0C0FCBDE8384098
:101FC00000F03EBC60000020EC060020546D725111
:101FD0000000000030B4026C0B46002A0BD0C16830
:101FE0001144C1608468A14201D30168C16030BC62
:101FF0001846FEF788B930BC70472DE9F041856B73
:10200000174604460026026C82B1C7B1E068FEF7AD
:102010007AF9E168206C091AE1602268914202D2E3
:10202000A168081AE060022F16D017E02068A8B94E
:10203000A06801F045F906460020A0600EE0606847
:10204000FEF761F9216C606808446060A16888420D
:1020500004D32068606001E005B16D1E6D1CA563AE
:102060003046BDE8F08110B5044690F8590058B1EB
:1020700001280CD002280FD0502080F31188BFF324
:102080004F8FBFF36F8FFEE7206B00F0EDFB204614
:10209000BDE8104000F0E8BB10BD000010484FF450
:1020A0007051420706D0C01D0D4920F00700411AAB
:1020B000C1F570510B4A00230144C2E900030839FD
:1020C000103A21F0070111604B600B600B1AC0E958
:1020D000001393604FF000405360D06070470000E1
:1020E000BC0E002088000020144E154CA6F29C4720
:1020F0004FF08058DFF84C9012E000BF00F080FBFA
:10210000F068C568281D00F01FFB2069401E206193
:10211000E068401EE06000F093FB2846FFF7A3FF55
:10212000E0680028EAD138680128F9D9C9F80080A8
:10213000BFF34F8FBFF36F8FF2E70000C40600209C
:102140002400002004ED00E070B51D46049C51B150
:10215000C4F80020C4E90F010121204600F0B8FDB9
:1021600084F84C5070BD2460F4E700002DE9F05F66
:102170008846DDE90B941546834691009A460A9EEF
:10218000A522206BFEF7D1F86FF00301206B01EB65
:102190008501084420F00707780707D0502080F316
:1021A0001188BFF34F8FBFF36F8FFEE70025B8F1A3
:1021B000000F0FD05FF00000221818F8001082F80E
:1021C000341018F8001011B1401C1028F4D384F812
:1021D000435001E084F83450382E00D33726E662AD
:1021E000C4E91365201D00F0E4FA04F1180000F0C2
:1021F000E0FA2461C6F138006462A061656584F884
:10220000585052465946384600F058FA2060B9F105
:10221000000F01D0C9F80040BDE8F09F30B511496A
:1022200000E011460A688242FBD34B685C18844286
:1022300003D1406818444860084643681C1894421B
:1022400009D1084C103C2468A24209D052681A44B3
:1022500042600A6812680260814200D0086030BDA6
:102260000460F9E78800002070B5002441600B4D40
:102270000061914206D8D11A8269914206D2011DAD
:10228000686807E09A4203D2994201D3012403E02F
:10229000011D286800F090FA204670BD6000002003
:1022A00010B5044600F0ACFAA06B28B15FF0000452
:1022B00000F0C6FA204610BD0124F9E730B589B018
:1022C0003C4D6EE00498002806DADDE90601059A27
:1022D00090470498002864DB069C606910B1201DBB
:1022E00000F032FA03A800F0D7F8024604980A2852
:1022F00057D2DFE800F00505052D334A05052D33DB
:1023000094F8280040F0010084F828000599A0699D
:10231000059B01442046FFF7A7FF68B3216A2046CA
:10232000884794F8280040073BD500200090059886
:10233000A169002342181946204601F0CBF8D8B90C
:10234000502080F31188BFF34F8FBFF36F8FFEE7EC
:1023500014F8280F20F00100207022E094F82800E3
:1023600040F0010084F828000598A06128B1811888
:1023700013462046FFF778FF13E0502080F31188C2
:10238000BFF34F8FBFF36F8FFEE794F828008107EC
:1023900003D4204600F068FA03E020F0010084F83E
:1023A0002800002204A9A86800F0E4FD002889D1D3
:1023B00009B030BD600000202DE9FC410F46054604
:1023C00000F09EFB01A800F067F80446019818B1E0
:1023D00000F0EEFFBDE8FC81254EAFB170680068EB
:1023E000D0B30027291B3A46B06800F0BBFA00F0D2
:1023F000DFFF0028EED11F494FF080500860BFF387
:102400004F8FBFF36F8FE5E7A542EBD800F0D0FF09
:1024100030682746C068C468201D00F095F994F81C
:102420002800410719D5A0692B4641193A46204694
:10243000FFF71AFFA8B100200346014600902A4684
:10244000204601F047F860B9502080F31188BFF3AF
:102450004F8FBFF36F8FFEE707E020F0010084F895
:102460002800216A20468847B4E70127BAE7000020
:102470006000002004ED00E006484168096829B1C9
:102480004168C968C9684968016370474FF0FF3106
:10249000FAE700002400002070B5054600F0A6FE13
:1024A000064E04463069844203D200F009F8012048
:1024B00000E0002028602046346170BD60000020EC
:1024C000F8B5194D20E0C068C4680668201D00F00A
:1024D0003BF9216A2046884794F82800400713D525
:1024E000A0693044B04206D924616060211D28688B
:1024F00000F062F908E000200346014600903246F1
:10250000204600F0E7FF38B1286801680029DAD1D9
:102510006968C5E90010F8BD502080F31188BFF349
:102520004F8FBFF36F8FFEE76000002008484068C0
:10253000401C4FF0500080F3118804D0BFF34F8F40
:10254000BFF36F8FFEE7BFF34F8FBFF36F8FFEE7D1
:1025500090000020074C2068016841B1C06800214C
:10256000D0F80000FFF728FFFFF7A8FEF3E70121EE
:102570000020F7E7600000202DE9F041044600F05C
:102580003FF994F9455004F1240609E0606A48B126
:10259000304600F0D5FE08B100F034FA6D1E6DB281
:1025A000002DF3DC4FF0FF3684F8456000F048F969
:1025B00000F026F994F9445004F1100709E020696D
:1025C00048B1384600F0BCFE08B100F01BFA6D1EA1
:1025D0006DB2002DF3DC84F84460BDE8F04100F0FA
:1025E0002FB900002DE9F0410546002700F088FAD8
:1025F000314E306808B9FFF751FDF06805424BD104
:10260000C5B3083568070ED005F00700C0F1080013
:102610000544680707D0502080F31188BFF34F8F1F
:10262000BFF36F8FFEE72DB37068854234D8224820
:10263000103001460C6801E020460C466168A94252
:1026400002D221680029F7D131688C4224D0076872
:102650002168016060680837411B10290FD9601993
:10266000420708D0502080F31188BFF34F8FBFF38B
:102670006F8FFEE710E041606560FFF7CFFD616896
:102680007068401A7060B268904200D2B060F06822
:1026900001430020C4E9000100F08AFE780707D05A
:1026A000502080F31188BFF34F8FBFF36F8FFEE789
:1026B0003846BDE8F08100007800002010B5031F07
:1026C0004FF080741C601B1F21F001011960191F5D
:1026D000044B0B6014390A60091F6FF00202443882
:1026E0000A6010BD2D250008F0B4164E1446049D56
:1026F00032681768874222D152684FF40070106028
:10270000326800205668B0605668F0605768082646
:102710003E6156683075080A10735173200A907331
:10272000D473180A10745374280A9074D574D2E9BB
:102730000001F0BC02F11C030C32FDF754BEF0BCEA
:1027400070470000A0000020D0E9013201699A60C2
:10275000D0E901235A604A68824201D182684A6006
:10276000002202610868401E086008687047000087
:10277000034B036003F15C00086080201060704729
:1027800004080020044B036003F15C0008604FF470
:102790008070106070470000600A002000F108019E
:1027A0004FF0FF32C0E90112C160016100210160F8
:1027B000704700210161704730B50B685A1C02D088
:1027C00000F1080202E0026904E02246546825682C
:1027D0009D42FAD953684B6099608A6051600861E4
:1027E0000168491C016030BD42684A6093688B6093
:1027F00093685960916008610168491C01607047E5
:10280000502080F31188BFF34F8FBFF36F8F0A49B9
:102810004868401C486001280CD10848006810F046
:10282000FF0F07D0502080F31188BFF34F8FBFF305
:102830006F8FFEE7704700009000002004ED00E07D
:102840000849486828B1401E486001D180F31188CA
:102850007047502080F31188BFF34F8FBFF36F8F05
:10286000FEE700009000002070B5002827D0144D2E
:10287000A0F108046168E868014207D1502080F3A4
:102880001188BFF34F8FBFF36F8FFEE722683AB115
:10289000502080F31188BFF34F8FBFF36F8FFEE797
:1028A0008143616000F02CF96068696808446860E1
:1028B0002046FFF7B3FCBDE8704000F079BD70BD65
:1028C000780000204FF0E02000210161816105497E
:1028D0004FF47A720968B1FBF2F1491E4161072198
:1028E000016170472000002010B5FDF7C5FC1149BB
:1028F00010280ED300F1E02090F8F0030A789042FF
:1029000007D2502080F31188BFF34F8FBFF36F8F32
:10291000FEE709480068896800F4E060884207D94A
:10292000502080F31188BFF34F8FBFF36F8FFEE706
:1029300010BD0000900000200CED00E010B5084B29
:10294000002200BF53F832401CB1521C082AF9D3B0
:1029500010BD43F8321003EBC201486010BD000007
:10296000E801002070B515460E460446FFF748FF03
:1029700094F944100020491C01D184F8440094F9D2
:102980004510491C01D184F84500FFF759FFA06BA1
:1029900028B92A46314604F1240000F051F82046B7
:1029A000BDE87040FFF7E8BD10B5020014D00F4835
:1029B000806B38B1502080F31188BFF34F8FBFF385
:1029C0006F8FFEE700F09CF800211046FFF740FAF9
:1029D00000F0EEFC002807D105494FF08050086058
:1029E000BFF34F8FBFF36F8F10BD00002400002096
:1029F00004ED00E002498A6A02604969416070475B
:102A00002400002001490120486270472400002072
:102A100010B50C4650B1094909681831FFF7CCFED2
:102A20002046BDE810400121FFF712BA502080F384
:102A30001188BFF34F8FBFF36F8FFEE72400002094
:102A400070B514460D4668B10A4909681831FFF798
:102A5000CBFE0CB14FF0FF3521462846BDE8704053
:102A6000FFF7F6B9502080F31188BFF34F8FBFF303
:102A70006F8FFEE72400002030B587B00024039458
:102A800005AA04A903A80494FFF772FEDDE9030177
:102A90000094CDE90110002315A11748059A00F014
:102AA0006CFB164D002868631FD000F0E3FC012882
:102AB00009D0401C19D1502080F31188BFF34F8FEB
:102AC000BFF36F8FFEE7502080F31188BFF34F8F65
:102AD000BFF36F8F4FF0FF3028630120E8616C6116
:102AE00007B0BDE8304000F045B807B030BD000089
:102AF00049444C4500000000E92000082400002063
:102B00000248816B491C816370470000240000204B
:102B1000164810B5816B11B10121416210BD002131
:102B200041628169124A01E0B9B1491E01EB81039A
:102B300052F82330002BF7D001EB810302EB830224
:102B400002F1080453685B685360A34201D15B68DB
:102B50005360DA680260816110BD502080F31188F3
:102B6000BFF34F8FBFF36F8FFEE7000024000020FC
:102B7000280200201CB537480168374A914207D126
:102B8000502080F31188BFF34F8FBFF36F8FFEE7A4
:102B900000683149491E884207D1502080F31188CE
:102BA000BFF34F8FBFF36F8FFEE72C49087801907A
:102BB000FF20087008788DF800009DF800009DF84F
:102BC000002000F0F000904207D0502080F31188E0
:102BD000BFF34F8FBFF36F8FFEE79DF80000204BD0
:102BE00000F0500018700720986005E09DF8002064
:102BF00052008DF80020401E9DF800201206F5D4EA
:102C00009860032807D0502080F31188BFF34F8FBE
:102C1000BFF36F8FFEE74FF4407098600198087023
:102C20000C482030016841F470010160016841F0F6
:102C300070410160FFF746FE00205860FDF7E4FA9E
:102C40000848016841F040410160FDF7C9FA0020E1
:102C50001CBD000000ED00E071C20F4100E400E087
:102C60009000002034EF00E038B5049D18B153B156
:102C7000CAB181B120E0502080F31188BFF34F8F9B
:102C8000BFF36F8FFEE7502080F31188BFF34F8FA3
:102C9000BFF36F8FFEE7502080F31188BFF34F8F93
:102CA000BFF36F8FFEE739B1502080F31188BFF377
:102CB0004F8FBFF36F8FFEE750241C46012384F82B
:102CC00046302B460094FFF73FFA204638BD0000FF
:102CD00070B50D46040025D0FFF792FDD4E90F2012
:102CE000216802FB0011A1600021A16321686160DD
:102CF0000A46D4E90F01401E00FB0121E160214694
:102D00004FF0FF3001F8440F487004F110008DB10E
:102D1000FFF744FD04F12400FFF740FDFFF790FDAD
:102D2000012070BD502080F31188BFF34F8FBFF397
:102D30006F8FFEE721690029F0D000F001FB002829
:102D4000ECD004494FF080500860BFF34F8FBFF3C1
:102D50006F8FE3E704ED00E02DE9FF4782B01D46E9
:102D60008A464FF00008040003D0BAF1000F08D0E3
:102D700011E0502080F31188BFF34F8FBFF36F8FA6
:102D8000FEE7206C38B1502080F31188BFF34F8FDD
:102D9000BFF36F8FFEE7022D0AD1E06B012807D049
:102DA000502080F31188BFF34F8FBFF36F8FFEE782
:102DB00000F00EFA3F4F4FF000094FF0805648B92F
:102DC000049838B1502080F31188BFF34F8FBFF3C0
:102DD0006F8FFEE7FFF714FDA06BE16B884207D30E
:102DE000022D05D00498D0B1B8F1000F1AD01EE022
:102DF0002A4651462046FFF700F9616A19B104F1ED
:102E0000240000F09DFA20B13E60BFF34F8FBFF366
:102E10006F8FFFF715FD012006B0BDE8F087FFF7C3
:102E20000FFD22E06846FFF7E5FD4FF00108FFF7D0
:102E300007FDFFF765FEFFF7E3FC94F94400401C33
:102E400001D184F8449094F94500401C01D184F8E4
:102E50004590FFF7F5FC04A9684600F027F930B16A
:102E60002046FFF789FB00F0A3FA0020D4E7FFF724
:102E7000C7FCA06BE16B884213D1FFF7E1FC04F1C2
:102E800010000499FFF7C4FD2046FFF775FB00F022
:102E90008FFA00289ED13E60BFF34F8FBFF36F8F34
:102EA00098E7FFF7CDFC2046FFF766FB00F080FABD
:102EB00090E7000004ED00E02DE9F0471F46904642
:102EC0008946040003D0B9F1000F08D011E050206A
:102ED00080F31188BFF34F8FBFF36F8FFEE7206C35
:102EE00038B1502080F31188BFF34F8FBFF36F8F3D
:102EF000FEE7022F0AD1E06B012807D0502080F3B3
:102F00001188BFF34F8FBFF36F8FFEE7FFF7ECFC25
:102F10005020EFF3118680F31188BFF34F8FBFF37A
:102F20006F8FA06BE16B884206D3022F04D0002084
:102F300086F31188BDE8F08794F945503A46494632
:102F40002046FFF75AF8681C04D06D1C84F84550E1
:102F50000120EDE7606A0028FAD004F1240000F0B7
:102F6000EFF90028F4D0B8F1000FF1D00121C8F832
:102F70000010EDE72DE9F747002683B08A460400EC
:102F800003D0BAF1000F08D011E0502080F311886F
:102F9000BFF34F8FBFF36F8FFEE7206C38B1502027
:102FA00080F31188BFF34F8FBFF36F8FFEE700F000
:102FB0000FF9DFF8F4804FF000094FF0805748B95F
:102FC000059838B1502080F31188BFF34F8FBFF3BD
:102FD0006F8FFEE7FFF714FCA56BC5B15146204685
:102FE000FEF7F8FF6D1EA563206950B104F11000D3
:102FF00000F0A6F928B1C8F80070BFF34F8FBFF3F7
:103000006F8FFFF71DFC012006B0BDE8F087059823
:1030100008B11EB106E0FFF713FC27E06846FFF792
:10302000E9FC0126FFF70CFCFFF76AFDFFF7E8FB60
:1030300094F94400401C01D184F8449094F945006F
:10304000401C01D184F84590FFF7FAFB05A96846BA
:1030500000F02CF8002820460AD0FFF78DFA00F087
:10306000A7F92046FFF71CF90028B3D00020CBE7D2
:10307000FFF716F990B104F124000599FFF7C8FC99
:103080002046FFF779FA00F093F90028A2D1C8F89A
:103090000070BFF34F8FBFF36F8F9BE72046FFF7A2
:1030A0006BFA00F085F995E704ED00E02DE9F041B9
:1030B0000C46050011D0C4B1FFF7A2FB174B5A69AB
:1030C0006E682068911B471C17D02F689B6A9F422F
:1030D00019D0964217D8012410E0502080F31188AF
:1030E000BFF34F8FBFF36F8FFEE7502080F311883F
:1030F000BFF34F8FBFF36F8FFEE70024FFF7A0FBF6
:103100002046BDE8F081884205D9401A2060284653
:10311000FFF770FCF1E700202060DCE724000020CE
:103120002DE9FF5F8346DDE90E87994616468A46FC
:103130009000FFF757FA05001CD05C20FFF752FA09
:10314000040014D00020256384F85900CDE9024022
:10315000CDE900874B46324651465846FFF706F800
:103160002046FEF7A3FE012004B0BDE8F09F2846EC
:10317000FFF77AFB4FF0FF30F6E7F0B585B0DDE9F9
:103180000B640A9DA6B1DCB15C270097266302267A
:1031900084F85960002604AFCDE90246CDE9005716
:1031A000FEF7E4FF2046FEF781FE049805B0F0BD6F
:1031B000502080F31188BFF34F8FBFF36F8FFEE76E
:1031C000502080F31188BFF34F8FBFF36F8FFEE75E
:1031D0000548C16919B1806B18B100207047012002
:1031E0007047022070470000240000200148406919
:1031F00070470000240000202DE9F0412E4C0027EC
:10320000A06B40B1206A401C2062606A00B10127B7
:103210003846BDE8F0816669761C666113D1606846
:10322000006838B1502080F31188BFF34F8FBFF38F
:103230006F8FFEE76068A1686160A060A06A401CB3
:10324000A062FFF719F9206BDFF87080864209D37E
:103250006068006880B16068C068C5686868864258
:103260000DD220632068C06A00EB800158F821006D
:103270000128CAD90127C8E74FF0FF30F1E7281D20
:10328000FFF762FAA86A18B105F11800FFF75CFAB7
:10329000E86AA169884200D9A06100EB800108EBCF
:1032A0008100291DFFF7A0FAE86A2168C96A8842EF
:1032B000CED30127CCE70000240000202802002004
:1032C00070B504004FF0000133D01B4D28688442D4
:1032D00007D0502080F31188BFF34F8FBFF36F8F5B
:1032E000FEE7206D38B1401E2065E36CE26A9A4229
:1032F0001FD040B11DE0502080F31188BFF34F8FE5
:10330000BFF36F8FFEE7201DFFF71EFAE06CE0624F
:10331000C0F13800A061E06AA969884200D9A861BB
:10332000064900EB800001EB8000211DFFF75CFAED
:103330000121084670BD0000240000202802002062
:1033400070B5C068C46854B104F118000646FFF7B0
:10335000FBF9144DA86B50B13146134815E05020CD
:1033600080F31188BFF34F8FBFF36F8FFEE7201DEF
:10337000FFF7EAF9E06AA969884200D9A8610B4918
:1033800000EB800001EB8000211DFFF72DFAE06AC1
:103390002968C96A884202D90120686270BD00208C
:1033A00070BD000024000020B0060020280200208C
:1033B0002DE9F0472C4D00242746A86B38B1FFF7C4
:1033C0001FFAA86B401EA863A86B40B146E05020CE
:1033D00080F31188BFF34F8FBFF36F8FFEE729692A
:1033E000224E0120D1B3A6F5916980463068E0B144
:1033F000F068C46804F11800FFF7A6F9201DFFF774
:10340000A3F9E06AA969884200D9A86100EB8001AC
:1034100009EB8100211DFFF7E7F9E06A2968C96A15
:103420008842E3D3C5F82480E0E70CB1FFF724F825
:103430002C6A4CB14FEA0806FFF7DEFE00B16E625F
:10344000641EF9D100202862686A38B10849012752
:1034500038070860BFF34F8FBFF36F8FFFF7F0F9A6
:103460003846BDE8F087000024000020B0060020A8
:1034700004ED00E010B586B0FEF780FD114CA068A9
:10348000B8B100200390049005AA04A903A8FFF78F
:1034900079F9DDE9032102208DE8070000230AA164
:1034A0000B48059AFFF769FEE06010B106B00120F5
:1034B00010BD502080F31188BFF34F8FBFF36F8F83
:1034C000FEE7000060000020546D72205376630018
:1034D000552500082DE9FF411E46134602000A9DAE
:1034E0004FF0000016D0144CA768002F0FD0CDE984
:1034F00000130292062917DAFFF76AFE02284FF03E
:1035000000030FD000226946A068FFF725FC04B035
:10351000BDE8F081502080F31188BFF34F8FBFF3D7
:103520006F8FFEE72A46EEE70023324669463846AB
:10353000FFF7C2FCEBE700006000002078350008D0
:10354000000000000000000000000000000000007B
:103550000002000018000000000000000000000051
:103560000000000000000000010203040607080933
:10357000000000000102030464656661756C745408
:1035800061736B00A435000800000020A400000057
:10359000DE19000848360008A4000020CC4F0000C7
:1035A000EE1900080000000074040000740400001C
:1035B000740400007404000001000000100000000A
:1035C000000000000024F4000000000000000000E3
:1035D00000000000000000000000000000000000EB
:1035E00000000000000000000000000000000000DB
:1035F00000000000000000000000000000000000CB
:1036000000000000000000000000000000000000BA
:1036100000000000000000000000000000000000AA
:10362000000000000000000000000000000000009A
:103630000000000000000000AAAAAAAA00000000E2
:08364000000000000000000082
:04000005080001AD41
:00000001FF
