:020000040800F2
:1000000018560020810200085B2E0008532B0008C0
:10001000592E0008450B0008CD37000800000000ED
:10002000000000000000000000000000C101000806
:10003000550B0008000000001D020008C93100082F
:100040009B0200089B0200089B0200089B0200081C
:100050009B0200089B0200089B0200089B0200080C
:100060009B0200089B0200089B0200089B020008FC
:100070009B0200089B0200089B0200089B020008EC
:100080009B0200089B0200089B0200089B020008DC
:10009000490B00089B0200089B0200089B02000815
:1000A0009B0200089B0200089B0200089B020008BC
:1000B0009B0200089B0200089B0200089B020008AC
:1000C0009B0200089B0200089B0200089B0200089C
:1000D0009B0200089B0200089B020008A137000851
:1000E0009B0200089B0200089B0200089B0200087C
:1000F0009B0200089B0200089B0200089B0200086C
:100100009B0200089B0200089B0200089B0200085B
:100110009B0200089B020008B13200089B02000805
:100120009B0200089B0200089B0200089B0200083B
:100130009B0200089B0200089B0200089B0200082B
:100140009B0200089B0200089B0200089B0200081B
:100150009B0200089B0200089B020008AD370008C4
:100160009B0200089B0200089B0200089B020008FB
:100170009B0200089B0200089B0200080000000090
:100180009B0200089B020008253500084535000841
:100190009B0200089B0200089B0200089B020008CB
:1001A00000000000000000009B020008DFF80CD0F7
:1001B00000F0F2FB00480047B15600081856002036
:1001C0002C4B19680868B0E8F04F80F30988BFF33A
:1001D0006F8F4FF0000080F311887047000000001F
:1001E00008480068006880F308884FF0000080F33A
:1001F000148862B661B6BFF34F8FBFF36F8F00DF15
:1002000000BF00BF08ED00E0DFF80C00016841F41A
:1002100070010160704700BF88ED00E0EFF30980D6
:10022000BFF36F8F134B1A681EF0100F08BF20ED3D
:10023000108A20E9F04F106009B44FF0500080F3AD
:100240001188BFF34F8FBFF36F8F06F007FE4FF09B
:10025000000080F3118809BC19680868B0E8F04F05
:100260001EF0100F08BFB0EC108A80F30988BFF3AE
:100270006F8F704740000020EFF30580704700004B
:100280000648804706480047FEE7FEE7FEE7FEE730
:10029000FEE7FEE7FEE7FEE7FEE7FEE79532000831
:1002A000AD0100082DE9F05F0546002092469B460F
:1002B00088460646814640241BE02846414647467C
:1002C000224600F046F953465A46C01A914110D3CF
:1002D00011461846224600F02DF92D1A67EB010849
:1002E0004F4622460120002100F024F917EB0009B7
:1002F0004E41201EA4F10104DFDC484631462A4667
:100300004346BDE8F09F40EA01039B0703D009E0A4
:1003100008C9121F08C0042AFAD203E011F8013BF1
:1003200000F8013B521EF9D27047D2B201E000F84A
:10033000012B491EFBD270470022F6E710B5134689
:100340000A4604461946FFF7F0FF204610BD30B5B7
:1003500005462A460B4612F8010B13F8014B08B16B
:10036000A042F8D01CB1002802D06D1CF1E728464D
:1003700030BD2DE9FE4F81EA030404F0004421F072
:10038000004100944FF0000B23F0004350EA0104B9
:100390005ED052EA03045BD0C3F30A54C1F30A559A
:1003A0002C44A4F2F3340194A0FB0254C1F31301D2
:1003B00041F48011C3F3130343F4801301FB02449F
:1003C00000FB034E840A970A44EA815447EA8357A4
:1003D000A4FB076802958D0A05FB07854FEA932C5D
:1003E00004FB0C542705029D4FEA065847EA1637CE
:1003F000B5EB08056EEB070C870E920E47EA8117E6
:1004000042EA8312A7FB0201B6EB0B0164EB000486
:100410002B0D43EA0C335E1844EB1C50DA46514670
:10042000E7FB0201C5F313044FEA0B3343EA14530D
:100430004FEA0432019C43EA0603A4F10C0402943F
:10044000009CCDE900B400F0DAF803B0BDE8F08F0D
:1004500000200146F9E70EB5C10F80EAE0700844BC
:10046000CA07002140F233438DE80E000A460B46CE
:1004700000F0C5F803B000BD00F0004230F00040CD
:100480000AD0C10D01F56071C0F3160042EA0151B6
:10049000C208400711437047002001467047000022
:1004A00030B5041E71F1000404DB4FF000444042FB
:1004B00064EB0101141E73F1000405DB1C464FF0D0
:1004C0000043524263EB0403994208BF904230BD9F
:1004D00001F0004330B421F0004150EA010206D09F
:1004E0000A0DA2F56072C1F31301002A02DC30BCD0
:1004F00000207047440F44EAC104C100E01830BC3A
:1005000000EBC25000F035B830B50B460146002074
:100510002022012409E021FA02F59D4205D303FAC5
:1005200002F5491B04FA02F52844151EA2F1010246
:10053000F1DC30BD202A04DB203A00FA02F1002071
:1005400070479140C2F1200320FA03F31943904011
:100550007047202A04DB203A21FA02F0002170477C
:1005600021FA02F3D040C2F120029140084319461B
:1005700070470029A8BF7047401C490008BF20F001
:100580000100704710B4B0FA80FC00FA0CF050EA99
:10059000010404BF10BC704749B1CCF1200421FA1A
:1005A00004F411FA0CF118BF012121430843A3EB15
:1005B0000C01CB1D4FEA00614FEA102042BF002022
:1005C00010BC704700EBC35010440029A4BF10BCFE
:1005D0007047401C490008BF20F0010010BC704764
:1005E00010B5141E73F1000408DA401C41F100013B
:1005F00092185B411A4301D120F0010010BD2DE992
:10060000F04D92469B4611B1B1FA81F202E0B0FA88
:1006100080F220329046FFF78DFF04460F4640EAF5
:100620000A0041EA0B0153465A46084313D01146CB
:1006300053EA010019D0C8F140025046FFF789FF84
:1006400005460E46504659464246FFF773FF08439B
:1006500005D0012004E020463946BDE8F08D002099
:10066000054346EAE0762C4337430A986305E40ADB
:10067000A0EB08000022FD0A44EA47540A3002D5E4
:1006800000200146E9E7010510196941DDE9084547
:1006900000196941BDE8F04DA2E72DE9FE4F804603
:1006A00081EA0300C00F0C46009021F0004123F0C6
:1006B0000045B8EB0200A94105D2404621469046CC
:1006C0001C460B46024623F00040104347D0270D3E
:1006D000C7F30A00C3F30A510290401A0190402860
:1006E0006BDAC3F3130040F4801B0098924620B1EC
:1006F0000023D2EB030A63EB0B0B01985946C0F1C0
:1007000040025046FFF716FF06460D465046594632
:10071000019A00F053F910EB08006141002487EAC8
:10072000115284EAE7731A4340D0009A62B3019AE7
:10073000012A4FEA075215DC001B61EB02014FF062
:10074000004202EA0752CDE90042001C41F5801147
:1007500032462B46FFF753FF03B0BDE8F08F40460B
:100760002146F9E7001B61EB0201001C41F58013F3
:1007700000185B412018A2F5001747EB030140EA7F
:10078000D570B6196D4111E06D084FEA360645EA9D
:10079000C0754FEA0752001B61EB0201001C41F5D6
:1007A000801149084FEA30000019514132462B466A
:1007B00003B0BDE8F04FFFF713BF009801224000DF
:1007C0000023D0EB020263EBE073009821464FEA6E
:1007D000E074B8EB000061EB0401E9E783F000434B
:1007E0005BE781F0004158E72DE9F04D81EA030411
:1007F00004F0004B21F0004514464FF0000A23F0AE
:10080000004150EA050220D054EA01021DD0C5F390
:100810000A570246C5F31303C1F31300C1F30A5686
:1008200040F4801543F48013A7EB0608101BD6464E
:1008300008F2FD3873EB050002D308F1010801E06E
:1008400092185B41B8F1000F03DA00200146BDE8C1
:10085000F08D00204FF48011064684460EE0171BF1
:1008600073EB050705D3121B63EB050306434CEA44
:10087000010C49084FEA300092185B4150EA010729
:10088000EDD152EA030012D082EA040083EA0501A6
:10089000084305D0101BAB4106D20122002306E01D
:1008A00000224FF0004302E06FF0010253101AEBF8
:1008B00006004CEB085110EB0A0041EB0B01BDE8C0
:1008C000F04DFFF78DBE2DE9F04D00231A461B1A9F
:1008D0008A4103DB00200146BDE8F08DC1F30A52D6
:1008E000C1F3130141F480154FF0000BD10702D181
:1008F00000186D41521E0027044640F2FF11384691
:1009000001EB620A3E468046024600204FF4801109
:10091000FFF71FFEC2197141BB1846EB0100B4EB93
:10092000030C75EB000C04D3E41A65EB00051746C5
:100930000E46241908F101006D4180463428E3DD9C
:10094000F91946EB0600091BA84103D24FF0FF320C
:10095000134601E0002213461BEB070046EB0A5149
:10096000BDE8F04DFFF73CBEC1F30A52C1F31301DD
:1009700040F2FF3341F480119A4202DA002001462E
:10098000704740F233439A42A2F2334202DC5242B1
:10099000FFF7DFBDFFF7CEBD064C074D06E0E06870
:1009A00040F0010394E8070098471034AC42F6D3B6
:1009B000FFF700FC007B0008207B0008202A06DBF4
:1009C000CB17203A41FA02F043EAE07306E041FA1D
:1009D00002F3D040C2F1200291400843194670470B
:1009E00030B58C1810F8012B12F00F0301D110F85C
:1009F000013B120906D110F8012B03E010F8015B4E
:100A000001F8015B5B1EF9D101E001F8013B521EC8
:100A1000FBD1A142E6D3002030BD0000464910B50D
:100A20004A6822F440324A604A6843681A434A607E
:100A300001684A6822F480724A6001684A68036962
:100A400042EA03224A6001684A6822F040724A6022
:100A500001684A6883681A434A6001688A6822F418
:100A600000628A6001688A68C3681A438A60816A82
:100A70006FF07062D14201688A6822F070628A6009
:100A800001688A680CD0836A1A438A6001688A68A0
:100A900022F040528A6001688A68C36A1A4301E002
:100AA00022F040528A6001688A6822F002028A605D
:100AB00001688A68037E42EA43028A6090F8201047
:100AC000002901684A680FD042F400624A60016858
:100AD0004A6822F460424A6001684A68174C436AD7
:100AE00004EB43331A4301E022F400624A600168D8
:100AF000CA6A22F47002CA620168CA6A838B104C07
:100B000004EB03531A43CA6201688A6822F4007234
:100B10008A6001688A6890F8303042EA43228A602D
:100B200001688A6822F480628A6001688A68406984
:100B300042EA8020886010BD0023014000E0FFFFF2
:100B40000000F0FFFEE70000014800F046BB000097
:100B50009C0200207047000070B590F83C206A4D60
:100B6000012A19D0012280F83C200A680723046872
:100B7000092A13D9E6680A3A02EB420293409E43DF
:100B8000E6600A788B680A3A02EB420293400268F8
:100B9000D4682343D36010E0022070BD266902EBC5
:100BA000420293409E4326610B788A6803EB43031D
:100BB0009A4003681C6922431A610268936B23F40C
:100BC000401393630268936B0C8A504E06EB0454F7
:100BD000234393630A790B7CD21AD21C02EB820264
:100BE0001F2393400268946B9C4394630A790B7CA7
:100BF000D21AD21C02EB82030A8892B29A4003688E
:100C00009C6B22439A638A69AA420268936823F420
:100C100070239360026893680CD08C6923439360BF
:100C20000268936823F44013936002689368CC6968
:100C3000234301E023F4401393604A7D002A0268B5
:100C4000536802D043F4806301E023F4806353606F
:100C50000A7D002A0268536802D043F4805301E001
:100C600023F4805353604A68012A16D0022A1FD009
:100C7000032A026827D0136A6FF30B03136202681A
:100C8000136ACC6823431362224B0468204A9C42B7
:100C900027D10C68122C20D023E0026853696FF32F
:100CA0000B03536102685369CC6823435361EBE73C
:100CB000026893696FF30B03936102689369CC68D0
:100CC00023439361E0E7D3696FF30B03D3610268B9
:100CD000D369CC682343D361D6E7546844F48004D5
:100CE000546004689C420AD10968A1F18053123B08
:100CF00001D0112903D1516841F400015160002154
:100D000080F83C10084670BD01000F000000F0FFA5
:100D1000002301400020014078B50024009490F8A1
:100D20003C20012A19D0012280F83C200A680723C0
:100D30000568092A13D9EE680A3A02EB4202934089
:100D40009E43EE600B788A680A3B03EB43039A40AC
:100D50000368DD682A43DA6010E0022078BD2E695E
:100D600002EB420293409E432E610B788A6803EBAC
:100D700043039A4003681D692A431A614A681F2386
:100D8000072A13D205686E6B521E02EB8202934053
:100D90009E436E630A8893B20A79521E02EB820266
:100DA00093400268556B2B43536327E005680D2A77
:100DB00012D22E6BD21F02EB820293409E432E630F
:100DC0000B790A88DB1F92B203EB83039A40036816
:100DD0001D6B2A431A6311E0EE6A0D3A02EB8202A0
:100DE00093409E43EE620B790A880D3B92B203EB6F
:100DF00083039A400368DD6A2A43DA621B4B056865
:100E0000194A9D420AD10D68122D07D1556825F463
:100E100000055560556845F48005556005689D429C
:100E20001DD1134D0B68AB4201D0112B17D1536864
:100E300023F480035360536843F40003536009684C
:100E4000A9420CD10B490C4A0968B1FBF2F101EB44
:100E50008101490000E0491E00910029FBD180F882
:100E60003C40002078BD00000023014000200140EC
:100E7000120000103C00002040420F0070B504003A
:100E80004FF0000503D0206C002610B107E00120D0
:100E900070BD204600F01CF8666484F83C60206C4D
:100EA000C00610D4206C20F4885040F0020020646A
:100EB0002046FFF7B3FD6664206C20F0020040F08E
:100EC0000100206400E0012584F83C60284670BDE4
:100ED00008B500680649884208D10648016841F40F
:100EE00080710160006800F48070009008BD00000F
:100EF000002001404438024090F82020012A07D009
:100F0000022A05D0416A41F48021416201207047E4
:100F1000006842690A43426100207047F0B590F8CA
:100F200020500468A468012D05D0022D03D0416A29
:100F300041F4802153E014F0406F01D1E5004BD51E
:100F4000C4F30164022C03D9416A41F4000146E074
:100F50000125A5401D608D684FF4C0739DB1CE681A
:100F600035434E6845EAC605066803EB0417F5519C
:100F70004FF4C275076805EB04150E697E51097DB3
:100F8000012905D009E00E88CD6845EA4655EBE712
:100F900001684E5946F480764E511179D2F80550C9
:100FA0004FF4C67641EA0525016806EB04168D511B
:100FB0001178D2F801204FF4C47541EA0221026889
:100FC00005EB04155151006803EB0411425842F03F
:100FD000010242500020F0BD416A41F4001141621B
:100FE0000120F0BD10B590F82020012A07D0022A78
:100FF00005D0416A41F480214162012010BD3B4887
:10100000D0F8002242F00102C0F80022D0F80022FD
:1010100022F47C52C0F80022D0F800224B6A42EA47
:101020000322C0F800220A7D02F01F0301229A4029
:10103000D0F81C329343C0F81C32CB69B3B9D0F856
:101040000C329343C0F80C328C894B6864F31F4315
:101050004C6900EBC404C4F840320C890B6864F39B
:101060001F434C6900EBC404C4F84432CB69012B24
:1010700016D1D0F80C321343C0F80C320C884B68F0
:1010800064F31F434C6900EBC404C4F840320C897C
:10109000CB6864F31F434C6900EBC404C4F84432CA
:1010A0008B69002BD0F804320ED01343C0F8043201
:1010B0000B69002BD0F8143208D01343C0F8143257
:1010C000096A012904D008E09343EFE79343F5E769
:1010D000D0F81C121143C0F81C12D0F8001221F0F5
:1010E0000101C0F80012002010BD000000640040A3
:1010F000704730B590F82040012C05D0022C03D069
:10110000416A41F480215DE00468002955D02469DA
:10111000A40754D04FF4D874056804EB01142D597A
:1011200015F00405956005682D594ED0ED08556001
:1011300005682C5904F00204D4604FF4DA74056891
:1011400004EB01142D5905F00F05156105682D59A3
:10115000C5F30725956105682C59240C54614FF49B
:10116000DC72046802EB0112A4581C700468A458D5
:10117000240A5C700468A458240C9C700468A2586B
:10118000120EDA704FF4DE72046802EB0112A458FA
:101190001C710468A458240A5C710468A458240CC7
:1011A0009C710468A258120EDA71006881B101695D
:1011B00041F020010161002030BDE468A8E7416AE8
:1011C00041F400114162012030BD6D0D1560AFE7A3
:1011D000C16841F02001C160EDE72DE9F05F0546EF
:1011E000006800244669D0F804908768D0F80CB0F5
:1011F000D0F810A0D0F81880F10748D0F90714D023
:1012000001218160B80703D5284600F02EFA0CE0D2
:10121000780702D54FF4006407E0380702D54FF491
:10122000805402E0284600F01FFAF80516D5296818
:101230004FF480708860B80503D5284600F017FA8F
:101240000CE0780502D544F4005407E0380502D5D7
:1012500044F4804402E0284600F008FAF80316D56A
:1012600029684FF480308860B80303D5284600F021
:1012700000FA0CE0780302D544F4004407E0380398
:1012800002D544F4803402E0284600F0F1F930073A
:1012900007D55FEACB6004D52968102044F40074B8
:1012A000C86070074FF0080707D55FEA0B7004D5D8
:1012B0002868C760284600F057F9B00706D52868A7
:1012C000C068800702D0284600F050F9700607D5A4
:1012D0005FEACA6004D52968102044F4806408617C
:1012E000B00607D55FEA0A7004D52868076128466A
:1012F00000F08AF9F00606D528680069800702D058
:10130000284600F082F9B00308D55FEAC96005D528
:10131000296810204860284600F078F9F00307D5C6
:101320005FEA097004D528684760284600F0A2F9F2
:10133000300446D55FEA497040D5F00504D55FEA30
:10134000C87001D044F00104B00504D55FEA88708C
:1013500001D544F00204700504D55FEA487001D558
:1013600044F00404300529D518F0700F26D008F099
:101370007000402815D006DC102809D020280AD09B
:10138000302816D10AE050280ED0602811D10EE086
:1013900044F008040DE044F010040AE044F0200496
:1013A00007E044F0400404E044F0800401E044F429
:1013B00080742868816921F07001816129680420A6
:1013C0004860002C05D0686A204368622846FFF711
:1013D0008FFEBDE8F09F70B5040003D094F82000A4
:1013E00010B104E0012070BD204600F081F82068B3
:1013F000016821F00201016000F052FA054605265D
:1014000004E000F04DFA401B0A2811D8206840681B
:101410008007F6D42068016841F00101016000F006
:101420003FFA05460BE000F03BFA401B0A2806D9BC
:10143000606A40F40030606284F82060D2E720687F
:101440004068C007EFD0207E0128206801683DD0A9
:1014500021F080010160607E01282068016838D099
:1014600021F040010160A07E01282068016833D08E
:1014700021F020010160E07E0128206801682ED063
:1014800041F010010160207F01282068016829D007
:1014900021F008010160607F01282068016824D0E4
:1014A00021F004010160D4E902010843D4E90412E7
:1014B000114308436168491E08432168C861002040
:1014C0006062012084F82000002070BD41F080019E
:1014D000C0E741F04001C5E741F02001CAE721F033
:1014E0001001CFE741F00801D4E741F00401D9E74A
:1014F00010B586B0044614216846FEF71DFF174953
:101500002068884227D116480021026842F0007204
:101510000260006800F00070059011481038026801
:1015200042F0080202600068022200F00800059004
:101530000320CDE90210CDE900020920049069469C
:10154000084800F0BDF800220521142000F034FA0C
:10155000142000F023FA06B010BD00000064004023
:1015600040380240000C02407047000070B5214C2A
:101570002368196881423BD19A6800211433FFF730
:10158000B8FD206802210068FFF7B6FC2168886872
:10159000026819481346A2F20122062A28D2DFE87F
:1015A00002F0030303031717D2B2027002EB4200EA
:1015B00000EBC202114813E003F0A0FB02E000BF01
:1015C00003F076FB2168BDE870400D4803F070BB66
:1015D0005B1FDAB2427002EB420000EBC202094824
:1015E00000EB8200826A531C8362322AE8D8E3E768
:1015F00070BD0000C0000020B80000203C010020A9
:101600009C040020FC0100207047704770470000D8
:1016100070B5044690F82000012804D0606A40F4B8
:101620000020606218E0022084F820002068016831
:1016300021F00101016000F033F905460EE000BF22
:1016400000F02EF9401B0A2808D9606A40F40030E7
:101650006062052084F82000012070BD2068406889
:10166000C007EDD1606270BD70477047704770472A
:1016700070477047704790F83510022903D08021D9
:10168000416501207047052180F835100068016828
:1016900021F00101016000207047000070B5044690
:1016A00000F0FEF80546601C02D0044800780444AF
:1016B00000F0F6F8401BA042FAD370BD30000020C5
:1016C0002DE9F84F00224FF0010803254FF00F0ECF
:1016D0000B6808FA02F42340A3426ED14E68012E33
:1016E00005D0022E03D0112E01D0122E12D1866801
:1016F0004FEA420C05FA0CF7BE43CF6807FA0CF725
:10170000374387604668A6430C79C4F300149440BD
:1017100034434460C668570005FA07FC8C6826EA23
:101720000C06BC403443C4604C68022C01D0122C1F
:1017300013D1D40800EB8404A346D4F820905407B6
:101740004FEAD46A0EFA0AF629EA06090E6906FA81
:101750000AF646EA0906CBF8206004680E7924EA06
:101760000C0406F00306BE40264306604C68E40005
:101770006FD53B4C266846F480462660246822F0EC
:10178000030604F480440094364C3444A446D4F850
:1017900008489607360F0EFA06F7BC43324FB84298
:1017A00001D100272EE0314FB84201D1012729E0B5
:1017B0002F4FB84202D1022724E04AE02D4FB84211
:1017C00001D103271EE02C4FB84201D1042719E0B4
:1017D0002A4FB84201D1052714E0294FB84201D160
:1017E00006270FE0274FB84201D107270AE0264F0E
:1017F000B84201D1082705E0244FB84201D109279A
:1018000000E00A27B7402743CCF80878204E346818
:101810004F689C43FF0300D51C4334601C4E361DAB
:1018200034684F689C43BF0300D51C433460184E96
:10183000083634684F689C43FF0200D51C4334606F
:10184000134E0C3634684F689C43BF0200D51C43CE
:101850003460521C102AFFF43BAFBDE8F88F000043
:1018600044380240003001400000024000040240C1
:1018700000080240000C0240001002400014024028
:1018800000180240001C02400020024000240240D8
:10189000003C01400AB1816170470904FBE7000088
:1018A00001488068704700003000002002488168CD
:1018B0000278114481607047300000200B4810B559
:1018C000016841F400710160016841F480610160C8
:1018D000016841F480710160032000F08DF8002060
:1018E00000F006F800F03EF8002010BD003C024079
:1018F00010B5014688B00022362000F05DF8362091
:1019000000F04CF813480024016841F01001016018
:10191000006805A900F010000690684600F050F934
:1019200000F06EF90C494000B0FBF1F10C480B4A95
:10193000491E026040F2E732C0E90324C0E9011405
:1019400000F010FD10B1012008B010BD044800F0F7
:1019500025FDF9E74038024040420F0000100040EA
:10196000C80400200C4882B0016841F48041016045
:10197000006800F4804000900748001F016841F0B3
:10198000805101600068002200F0805000900F211B
:10199000901E02B000F010B844380240002809DB65
:1019A00000F01F02012191404009800000F1E02079
:1019B000C0F8001170470000F0B40E4B1B680C46D5
:1019C000C3F30223C3F10705042D00D90425191D13
:1019D000072901D2002300E0DB1E012606FA05F1EB
:1019E000491E214099409E40761E16403143F0BC6E
:1019F00001F016BF0CED00E0064900F00702086890
:101A00004FF6FF03184040EA0220034A10430860E3
:101A1000704700000CED00E00000FA052DE9F843E6
:101A20001748016841F0805101600068154F00F0CF
:101A30008050012600903E64FFF732FF05464FF4C8
:101A40007A78114C05E000BFFFF72AFF401B4045A4
:101A50000DD86068C003F7D57E64FFF721FF054607
:101A6000464607E0FFF71CFF401BB04202D90320A7
:101A7000BDE8F88360688003F4D50020F8E7000033
:101A80004038024000000E42007000402DE9F0474F
:101A90000E46050065D0DFF81481D8F80000F7B2D3
:101AA00000F00F00B04207D288F80070D8F80000AC
:101AB00000F00F00B04254D128683D4C810712D588
:101AC000400703D5206840F4E050206028780007E4
:101AD00003D5206840F4604020602068A96820F0A9
:101AE000F000084320602878C0072DD0304968688E
:101AF0000839012812D0022813D0032811D0096810
:101B0000890700292DDA216821F0030101432160B2
:101B1000FFF7C6FE814641F2883A0EE00968890364
:101B2000EFE709688901ECE7FFF7BAFEA0EB0901CE
:101B3000514502D90320BDE8F0872068696800F0AC
:101B40000C00B0EB810FEFD1D8F80010404601F047
:101B50000F01B14207D90770006800F00F00B042D2
:101B600001D00120E7E72878400705D52068E9681B
:101B700020F4E050084320602878000706D520684C
:101B8000296920F4604040EAC100206000F058F864
:101B90002168084AC1F30311515CC8400649086036
:101BA00006480068FFF7A4FE0020C4E7003C02409E
:101BB00008380240847900083C00002034000020EE
:101BC0000F2202600C4A136803F00303436013689A
:101BD00003F0F0038360136803F4E053C3601268FA
:101BE0004FF4E05303EAD20202610448006800F0B7
:101BF0000F0008607047000008380240003C0240B7
:101C00000448054900680968044AC1F38221515C0F
:101C1000C84070473C000020083802409479000812
:101C20000448054900680968044AC1F34231515C1F
:101C3000C84070473C0000200838024094790008F2
:101C4000154810B5006810F00C02144813D0144960
:101C5000042A0FD0082A0ED10F4C241F22682368B3
:101C600002F03F025B0207D52068C0F38810A0FB9A
:101C7000010106E0084610BD2168C1F38811A1FBEF
:101C800000010023FEF70EFB2168C1F30141491C4E
:101C90004900B0FBF1F010BD083802400024F40008
:101CA000001BB7002DE9F84F04006ED02078DFF854
:101CB0003C93C007A9F104054AD009F1040001686A
:101CC000C1F38101012908D00068C0F38100022816
:101CD0000AD1D9F80000400206D52868800337D51C
:101CE00060680028E1D033E06068B0F5803F10D034
:101CF000B0F5A02F286810D020F480302860286824
:101D000020F4802028606068A8B1FFF7C9FD06466E
:101D10000DE0286840F48030F4E740F4802028602B
:101D2000F7E700BFFFF7BCFD801B642873D8286865
:101D30008003F7D50CE0FFF7B3FD064605E000BFD2
:101D4000FFF7AEFD801B6428F0D828688003F7D425
:101D50002078DFF89C8280074FF0000A3ED5A34828
:101D6000001D016811F00C0F08D00068C0F381005D
:101D700002280BD1D9F80000400207D42868800758
:101D800016D5E068012800D112E02BE1E068B8B177
:101D90000120C8F80000FFF783FD064605E000BFFC
:101DA000FFF77EFD801B0228C0D828688007F7D582
:101DB0002868216920F0F80040EAC10028600DE0A1
:101DC000C8F800A0FFF76CFD064604E0FFF768FDC9
:101DD000801B02281FD828688007F7D420780007C6
:101DE00022D5824E83486169703671B1012101604C
:101DF000FFF756FD074604E0FFF752FDC01B02281F
:101E000009D830688007F7D50EE0C0F800A0FFF7CA
:101E100047FD074605E082E0FFF742FDC01B0228B0
:101E20007DD830688007F7D42078400768D5DFF880
:101E3000BCB100270BF13C0BDBF80000C0000BD459
:101E4000DBF8001041F08051CBF80010DBF8000007
:101E5000012700F080500090674E3068C00510D414
:101E6000306840F480703060FFF71AFD009005E0A4
:101E7000FFF716FD0099401A022850D83068C005B7
:101E8000F6D55A4EA0686C3601280FD00528306868
:101E900010D020F001003060306820F00400306085
:101EA000A068B8B1FFF7FCFC00900FE0306840F08C
:101EB0000100F4E740F004003060F7E7FFF7F0FCC2
:101EC0000099411A41F28830814266D83068800713
:101ED000F4D50EE0FFF7E4FC009007E0FFF7E0FC2C
:101EE0000099411A41F28830814256D83068800703
:101EF000F4D42FB1DBF8001021F08051CBF80010A2
:101F0000A069C8B33949091D0968C1F381010229D3
:101F10004AD00228504607D0C8F8600000E03CE0F4
:101F2000FFF7BEFC04463BE04746C8F86000FFF7F9
:101F3000B7FC064605E000BFFFF7B2FC801B022895
:101F40002BD828688001F7D4D4E907010843A16A97
:101F50002A4A490802EB0141626A41EA82110843B8
:101F600094F82C1040EA0161C9F80010012038668D
:101F7000FFF796FC044606E036E000BFFFF790FC52
:101F8000001B022809D828688001F7D52CE000BF83
:101F9000FFF786FC001B022802D90320BDE8F88F5A
:101FA00028688001F4D41FE00128F7D0D9F8000098
:101FB000E26900F48001914214D1226A00F03F01ED
:101FC00091420FD147F6C071626A0140914209D136
:101FD000A26A00F44031914204D1E16A00F07060DD
:101FE000884201D00120D9E70020D7E70438024019
:101FF00000004742800E4742007000400000FFFF93
:1020000070B5040005D00025A56294F8510010B108
:1020100006E0012070BD84F85050204600F030F8F2
:10202000022084F851002068016821F0400101601D
:10203000D4E901010843D4E903121143084361695B
:102040000843218B01F400710843E1690843216AC8
:102050000843A16A084321680860A069042101EAD5
:102060001040616A0843216848602068C16921F412
:102070000061C1616565012084F85100002070BDD8
:1020800010B586B0044614216846FEF755F9144988
:102090002068884221D113480021026842F480124E
:1020A0000260006800F4801005900E481438026841
:1020B00042F020020260006800F0200005904FF41A
:1020C000607000900220CDE90101032003900520FB
:1020D000049069460448FFF7F3FA06B010BD00000B
:1020E0000050014044380240001402402DE9F84FEE
:1020F000044690F8500000270A9E1D4692468B46E3
:102100004FF0010901280ED0012084F85000FFF79C
:10211000C7FB804694F85100616801280CD0B1F5E6
:10212000827F07D102E00220BDE8F88FA16809B9DB
:10213000042801D00227C2E0BBF1000F27D0BAF17A
:10214000000F24D01DB394F85100042802D00520BC
:1021500084F8510000206065C4F838A0E587A587A1
:10216000C4F830B0E586A586206460642068016804
:10217000490603D4016841F040010160E068B0F510
:10218000006F606805D0E8B3012D46D07FE00127DD
:1021900095E008B1012D39D1206B21680088C86015
:1021A000206B801C2063E08E401EE0862EE02068BD
:1021B000816889070FD5E18E69B1B9F1010F0AD1A4
:1021C000216B0988C160206B801C2063E08E401E5B
:1021D000E0864FF0000920688168C9070CD0E18FC4
:1021E00051B1C068A16B0880A06B801CA063E08F18
:1021F000401EE0874FF00109FFF752FBA0EB0800FB
:10220000B04200E009E001D3701C50D1E08E0028FC
:10221000CDD1E08F0028CAD13FE0206B2168007843
:102220000873206B401C2063E08E401EE0862EE089
:102230002068816889070FD5E18E69B1B9F1010F76
:102240000AD1216B09780173206B401C2063E08E5A
:10225000401EE0864FF0000920688168C9070CD055
:10226000E18F51B1C068A16B0870A06B401CA063E6
:10227000E08F401EE0874FF00109FFF711FBA0EB54
:102280000800B04202D3701C01D010E07EB1E08E95
:102290000028CDD1E08F0028CAD1424631462046E1
:1022A00000F0E8FD28B101272020606507E0032742
:1022B00005E0A06818B92068C16880680090012016
:1022C00084F85100002084F8500038462CE770470D
:1022D0007047000070B590F83C20012A32D00124EC
:1022E00080F83C40022280F83D2003685A689D68CF
:1022F00022F070060A6832435A60134B02689A4211
:1023000014D0B2F1804F11D0104B9A420ED0104B26
:102310009A420BD00F4B9A4208D00F4B9A4205D0ED
:102320000E4B9A4202D00E4B9A4204D1496825F0D6
:1023300080031943916080F83D40002180F83C10F3
:10234000084670BD022070BD00000140000400403E
:1023500000080040000C0040000401400040014023
:102360000018004010B5040003D094F83D0010B1EF
:1023700007E0012010BD002084F83C00204600F05A
:102380000CF8022084F83D00211D206800F096FF23
:10239000012084F83D00002010BD70470168CA6824
:1023A00042F00102CA600068816801F00701062955
:1023B00003D0016841F001010160002070477047BF
:1023C00070B50446006801694FF00005C9438907EC
:1023D00015D4C168C943890711D4E91E01610120E0
:1023E0002077206880698007204602D0FFF7E7FF4A
:1023F00004E000F0D9F8204600F07AF9257720684B
:102400000169C943490717D4C168C943490713D4AF
:102410006FF004010161022020772068806910F4C8
:10242000407F204602D0FFF7CAFF04E000F0BCF86E
:10243000204600F05DF9257720680169C943090746
:1024400016D4C168C943090712D46FF008010161AD
:10245000042020772068C0698007204602D0FFF75B
:10246000AEFF04E000F0A0F8204600F041F9257727
:1024700020680169C943C90617D4C168C943C906A0
:1024800013D46FF010010161082020772068C06923
:1024900010F4407F204602D0FFF791FF04E000F0E7
:1024A00083F8204600F024F9257720680169C943A4
:1024B000C90708D1C168C943C90704D1891E016190
:1024C000204600F039F920680169C943090609D49A
:1024D000C168C943090605D46FF080010161204637
:1024E000FFF7F5FE20680169C943490609D4C168B0
:1024F000C943490605D46FF040010161204600F050
:1025000025F920680169C94389060BD4C168C9430C
:10251000890607D46FF0200101612046BDE87040B4
:10252000FFF7D6BE70BD000010B586B0044614217A
:102530006846FDF701FF2368164C00211648022269
:10254000A34210D1036843F002030360006800F067
:102550000200059020200090CDE90121CDE9031271
:1025600069460E4812E00E4CA34211D1036843F0B5
:1025700008030360006800F008000590A0140090B4
:10258000CDE90121CDE9031269460648FFF798F825
:1025900006B010BD00040040303802400004024084
:1025A00000080040000C0240704770B5044690F8E7
:1025B0003C000D4601280DD0012684F83C60022025
:1025C00084F83D0042B1042A18D0082A2AD00C2AE7
:1025D0004DD139E0022070BD206800F0E1FE206896
:1025E000816941F0080181612068816921F004015D
:1025F0008161206881692A69114311E0206800F037
:10260000FFFE2068816941F4006181612068816971
:1026100021F480618161206881692A6941EA02218F
:10262000816124E0206800F021FF2068C16941F049
:102630000801C1612068C16921F00401C1612068FD
:10264000C1692A69114311E0206800F043FF206846
:10265000C16941F40061C1612068C16921F48061F0
:10266000C1612068C1692A6941EA0221C16184F817
:102670003D60002084F83C0070BD10B5040003D01C
:1026800094F83D0010B107E0012010BD002084F84F
:102690003C00204600F00CF8022084F83D00211D8B
:1026A000206800F00BFE012084F83D00002010BDE2
:1026B00008B50C4A01680C48914207D1016841F005
:1026C00002010160006800F0020009E0074A91423F
:1026D00007D1016841F004010160006800F00400C6
:1026E000009008BD0004004040380240000800404F
:1026F0007047000010B504460068012200F042FE59
:102700000B492068884202D00A49884203D1416CB3
:1027100041F4004141642068816801F00701062905
:1027200003D0016841F001010160002010BD0000EC
:10273000000001400004014000680349884201D1C3
:10274000FFF7B4B8704700000010004070477047B2
:1027500070B5026804461068D168536910F00F0F15
:1027600053D003F0010501F490762E435FD0C207E9
:1027700005D0CA0503D5E26B42F00102E2634207CD
:1027800005D5DA0703D0E26B42F00202E26382076A
:1027900005D5DA0703D0E26B42F00402E2630207D8
:1027A00007D501F020022A4303D0E26B42F0080271
:1027B000E263E26B002A34D0800604D5880602D595
:1027C000204600F0DBFE20684069E16BC0F380101A
:1027D00001F008010143204624D000F0C1FE20682A
:1027E000416949061AD5416921F040014161606B98
:1027F000A0B11B490165606BFEF73DFF002810D0BA
:10280000606B016DBDE87040084783060FD58B06ED
:102810000DD52046BDE8704000F0B0BE2046FFF761
:1028200096FF70BDFFF793FF0020E06370BD0306C5
:1028300006D50B0604D52046BDE8704000F07EBFEB
:102840004006F3D54806F1D5D168204621F0400175
:10285000D160202184F8391000F07AF970BD0000B1
:102860005135000870B5040004D094F839000025F3
:1028700010B106E0012070BD84F83850204600F009
:1028800023F8242084F839002068C16821F400511D
:10289000C160204600F0BEFE2068016921F490412D
:1028A00001612068416921F02A0141612068C16805
:1028B00041F40051C160E563202084F8390084F8B8
:1028C0003A00002070BD0000F0B587B00446142126
:1028D0006846FDF731FD5049DFF838E125680026EC
:1028E0004D4A10390224032308274C484FF0010CAD
:1028F00075451ED1156845F080451560126802F0D7
:10290000804205920A6842F010020A60096801F0EC
:1029100010010591D9018DE81210CDE90337694600
:10292000FEF7CEFE002205215220FFF745F8522087
:1029300020E0DFF8ECE0754520D1156845F0004552
:102940001560126802F0004205920A6842F0100217
:102950000A6009688DE8181001F01001CDE90471D2
:1029600003936946FEF7ACFE002205215320FFF7D2
:1029700023F85320FFF712F807B0F0BD294885422D
:1029800021D1106840F480201060106800F480208D
:102990000590086840F0080008600868694600F083
:1029A000080005904FF440708DE851000720CDE9F4
:1029B00003301D48FEF784FE002205212720FEF784
:1029C000FBFF2720D6E719488542D5D11248001DC4
:1029D000026842F020020260006800F020000590CA
:1029E000086840F0400008600868694600F0400050
:1029F00005904FF484408DE85100CDE903370C4831
:102A0000FEF75EFE002205214720FEF7D5FF472096
:102A1000B0E700000078004040380240001002405B
:102A2000007C004000480040000C024000140140BF
:102A30000018024090F83A30202B22D1F9B1F2B1BF
:102A400090F83830012B1CD081628285C28500212C
:102A5000C163222280F83A2080F838100168CA68E1
:102A600042F48072CA6001684A6942F001024A6118
:102A70000068C16841F02001C1600020704701205A
:102A800070470220704700002DE9F04107462948B1
:102A90000025294C4FF00108874219D127480078BA
:102AA000242800D16580264962888854521C96B239
:102AB00066800A78242A07D10A794D2A04D14979F7
:102AC000432901D10A2814D0C82E01D3C820608020
:102AD0001C48874223D11C4801782078D8B10226AF
:102AE00001281ED002281AD1607802F00CF9E8B152
:102AF0001EE050211548FDF71FFC324610491348CF
:102B0000FDF701FC11490E4881F850806580C8210D
:102B1000FDF712FCDCE7FF2901D184F80080BDE855
:102B2000F0816170012903D0022901D02570F6E7F8
:102B30002670F4E75C040020C4000020BC000020E4
:102B4000E05000209C030020BD000020DC4D002050
:102B50007047FEE770B58CB00024089409940A947D
:102B6000202168460B94FDF7E7FB1E481C49012510
:102B700001604FF48031C0E901140461047680F8EB
:102B800020401949C0E90A14C561C46080F830408A
:102B90004561FEF773F908B172B6FEE7134E089669
:102BA000CDE9095408A90F48FEF7B6F808B172B686
:102BB000FEE7CDE900650E480294CDE906048DF8E4
:102BC000154004958DF81440694606480394FDF7B6
:102BD000C3FF002801D072B6FEE70CB070BD000044
:102BE00000200140540200200100000F12000010DC
:102BF00001000F000E4810B50C4901600921416029
:102C000000214FF400328160C0E903124161017676
:102C1000012242768176C17601774177FEF7DBFBB0
:102C2000002801D072B6FEE710BD0000006400402D
:102C30009C0200202DE9F04186B014216846FDF782
:102C40007BFB36480024016841F0100101600168F7
:102C500001F010010591016841F002010160016875
:102C600001F002010591016841F040010160016835
:102C700001F040010591016841F001010160016826
:102C800001F001010591016841F00801016001684E
:102C900001F008010591016841F0800101600168BF
:102CA00001F080010591016841F020010160006898
:102CB0001B4E00F020000590002210213046FEF748
:102CC000E9FD184F01223C213846FEF7E3FDDFF80D
:102CD0005880002240214046FEF7DCFD1020009085
:102CE0000125CDE90154694630460394FEF7E8FC1E
:102CF0003C20CDE90005CDE9025469463846FEF78F
:102D0000DFFC40200090CDE9015469464046039421
:102D1000FEF7D6FC06B0BDE8F08100003038024076
:102D200000040240001C0240001402400F4810B58D
:102D30000D4901604FF48271416000218160C160E2
:102D40004FF400720161C0E905123022C0E9072189
:102D5000416281620A21C162FFF752F9002801D065
:102D600072B6FEE710BD000000500140C402002012
:102D700010B58AB0002407941C2168460894FDF71A
:102D8000DBFA1748154901605921C0E9011441F2E5
:102D90008731C0E9031480218161FFF76EFC08B11F
:102DA00072B6FEE7079407A90D480894FFF792FA58
:102DB00008B172B6FEE76020CDE900040294042257
:102DC000694607480494FFF7F0FB08B172B6FEE7C6
:102DD0000348FFF7A9FB0AB010BD00000004004043
:102DE0001C03002010B58AB0002407941C216846FB
:102DF0000894FDF7A1FA1748154901600521C0E9BB
:102E000001144FF47A71C0E9031480218161FFF746
:102E100034FC08B172B6FEE7079407A90D48089480
:102E2000FFF758FA08B172B6FEE76020CDE900045A
:102E300002940022694607480494FFF7B6FB08B1E4
:102E400072B6FEE70348FFF76FFB0AB010BD000043
:102E5000000800405C030020FEE7FEE730B4034CAE
:102E60004466034C846630BC03F0AEB8C95F00080A
:102E7000D75F000838B504461248134B0068B0FB12
:102E8000F3F04FF47A73584300906068B0F5827F96
:102E90000DD10B46009200228021204600F016F84A
:102EA00070B1606D40F020006065032038BD00986F
:102EB00030B1401E009020688068C0430006F6D5FF
:102EC000002038BD3C00002000366E012DE9F041A5
:102ED0001D4617460E460446DDF8188008E0681CBB
:102EE00006D0FEF7DDFCA0EB0800A8420BD255B1DE
:102EF0002068806836EA000030D00020B842EED169
:102F00000020BDE8F0812068416821F0E0014160C7
:102F10006068B0F5827F0BD1A068B0F5004F02D099
:102F2000B0F5806F04D12068016821F04001016094
:102F3000A06AB0F5005F09D12068016821F4005152
:102F400001602068016841F400510160012084F8AB
:102F50005100002084F850000320D2E70120CDE783
:102F60002DED028B00249FED1E8ADFED1E8A1E4D83
:102F700044F6206604EBC40000EB400005EB800043
:102F8000B0EE481AF0EE680AB7EE080A3246334649
:102F90000321FFF763FF641C022CEBDB134E144F7D
:102FA0005FF0000406EB8400D0ED000A04EB44005F
:102FB00000EBC40037F9200000EE100A04EBC40057
:102FC00000EB4000B8EEC00A05EB800002F01AFFEB
:102FD000641C022CE6DB0A2002F0FEFDE0E70000A4
:102FE00000000000CDCCCC3D08500020280000207F
:102FF000FC010020084D094C0A2095ED000A84EDE3
:10300000000A95ED010A84ED010A95ED020A84EDAE
:10301000020A02F0E1FDEFE70C5200200000002060
:10302000012002F0D9FDFBE70A2002F0D5FDFBE705
:103030004FF47A7402F074FE02F0D0FF204602F0E2
:10304000CBFDF7E702F00EFC01F064FE02F0B8F8E9
:10305000052002F0C1FDF5E72DED048B82B00024C0
:103060009FED518ADFED518A514D44F6206600BF35
:1030700004EBC40000EB400005EB8000B0EE481A02
:10308000F0EE680AB7EE080A324633460321FFF72E
:10309000E5FE641C042CEBDBDFF818819FED468A0B
:1030A000F1EE088A9FED459A454EF3EE039AA6F19C
:1030B000B00700BFD8ED000A98ED010A98ED021A9A
:1030C0005FF0000470EE801A41EE081A81EEA82A23
:1030D00062EE091A61EEA91AC6ED001A70EE601AC6
:1030E00041EE081A81EEA82A62EE091A61EEA91AC9
:1030F000C6ED011AF1EE601A71EEC01A30EEC00A88
:1031000041EE081A01EE080A81EEA82AC0EE280A4C
:1031100062EE091A61EEA91AC6ED021A20EE890ABA
:1031200020EE290A86ED030A06EB8400D0ED000AA2
:1031300004EB440000EBC40037F9200000EE100A55
:1031400004EBC40000EB4000B8EEC00A05EB8000C1
:1031500002F058FE641C042CE6DB95ED600ABDEE1F
:10316000C00A10EE100A00B2009095ED450ABDEEBF
:10317000C00A10EE100A95ED2A0A03B2BDEEC00A8D
:1031800010EE100A95ED0F0A02B2BDEEC00A10EE65
:10319000100A01B20B480068006803F0E5FB0A2042
:1031A00002F01AFD86E7000000000000CDCCCC3D07
:1031B000584E0020000000203333A042ECC91841D3
:1031C000EC010020C000002010B5502080F31188D1
:1031D000BFF34F8FBFF36F8F04F0B4F918B10449F8
:1031E0004FF080500860002080F3118810BD00006F
:1031F00004ED00E030B593B030216846FDF79CF84F
:1032000014210CA8FDF798F820480025016841F02A
:1032100080510160006800F0805011901C480168E6
:1032200041F4404101600068022400F440401190E4
:1032300001200090000401908001CDE906400620A5
:103240000890B420CDE9090404200B906846FEF7ED
:1032500029FD08B172B6FEE7FEF7E0FB08B172B6D1
:10326000FEE70CA90F2081E831004FF4A0500F9029
:103270004FF48050109005210CA8FEF707FC0028A1
:1032800001D072B6FEE713B030BD000040380240F6
:10329000007000400548016841F470010160034975
:1032A0004FF00060803908607047000088ED00E052
:1032B0000148FFF785B80000C8040020F0B5026897
:1032C000254C264D264E274F274B4FF0804CA042D1
:1032D00009D0604507D0A84205D0B04203D0B8421B
:1032E00001D0984204D122F0700E4A6842EA0E02E0
:1032F000A0421BD0604519D0A84217D0B04215D0CB
:10330000B84213D0984211D0184DA8420ED0184D93
:10331000A8420BD0174DA84208D0174DA84205D09F
:10332000164DA84202D0164DA84203D122F4407592
:10333000CA682A434D6922F080022A4302608A68E3
:10334000C2620A688262A04201D0984201D1096932
:10335000016301214161F0BD000001400004004013
:1033600000080040000C0040000401400040014003
:10337000004401400048014000180040001C00408B
:103380000020004010B501F01F030121046A99409C
:103390008C430462016A9A401143016210BD00002F
:1033A000F0B5026A22F001020262036A426884698F
:1033B000124E24F073050C682C4323F002058B6831
:1033C0002B430D4DA84201D0B04205D123F0080790
:1033D000CB683B4323F00403A84201D0B04205D19F
:1033E0004D6922F4407215438A692A434260846120
:1033F000496841630362F0BD0000014000040140E0
:10340000F0B5026A22F010020262026A436884691F
:103410000D6824F4E64444EA05248D6822F0200275
:1034200042EA05120F4D104EA84201D0B04206D11B
:10343000CF6822F0800242EA071222F04002A8423E
:1034400001D0B04207D14D6923F4406343EA8503BC
:103450008D6943EA85034360846149688163026240
:10346000F0BD00000000014000040140F0B5026A18
:1034700022F480720262026A4368C46922F4007214
:1034800024F073050C68124E2C438D6842EA052225
:103490000E4DA84201D0B04206D1CF6822F400629E
:1034A00042EA072222F48062A84201D0B04207D14A
:1034B0004D6923F4405343EA05138D6943EA05132C
:1034C0004360C4614968C1630262F0BD000001400D
:1034D0000004014030B5026A22F480520262046A9C
:1034E0004268C3690D6823F4E64343EA05238D6807
:1034F00024F4005444EA0534084DA84202D0084D93
:10350000A84204D14D6922F4804242EA8512426009
:10351000C36149680164046230BD000000000140DD
:103520000004014010B50548FFF712F9BDE810404E
:10353000012203490148FFF77DBA00009C030020E7
:10354000BD0000200148FFF703B90000DC030020A4
:1035500010B5806B0021C185C184FFF7F8F810BD5C
:103560000168CA6822F49072CA6001684A6922F050
:1035700001024A61202180F83A10704710B590F896
:103580003A10222901D0022010BD8168B1F5805F78
:1035900011D00169002901681FD0496801F07F033B
:1035A000816A4A1C82620B70C18D491E0904090C94
:1035B000C18518D02BE00269816A002A026852682E
:1035C00005D0D2B20A80816A491C8162ECE7C2F35D
:1035D00008020A80816A891CF7E74A68816A4B1CE5
:1035E00083620A70E0E70168CA6822F02002CA60BC
:1035F0000168CA6822F48072CA6001684A6922F0D0
:1036000001024A61202180F83A10FFF73DFA0020BC
:1036100010BD00002DE9F041044600680169E26830
:1036200021F44051114301612169A068E269084316
:103630006169114308432168CA6849F20C639A43DF
:103640000243CA6020684169A26921F440711143B4
:103650004161E069192764253226B0F5004F354AEB
:10366000354920684FF0000806D0884201D09042CA
:1036700036D1FEF7D5FA35E0884201D0904202D12A
:10368000FEF7CEFA01E0FEF7BBFA61684A18A0FB2C
:10369000070148EB0803FCF705FE0146B0FBF5F017
:1036A0000201B1FBF5F06FF01803584301EB800005
:1036B00006EBC000B0FBF5F000F0F80002EB4002B2
:1036C000B1FBF5F0584301EB800006EBC000B0FB06
:1036D000F5F000F00700216810448860BDE8F08133
:1036E000FEF78EFA61688B0F8A00A0FB0701FCF7DA
:1036F000D9FD0146B0FBF5F06FF01802504301EB25
:10370000800006EB0010B0FBF5F000F0F002B1FB1A
:10371000F5F002EB0012B1FBF5F06FF0180358431F
:1037200001EB800006EB0010B0FBF5F000F00F009D
:10373000D1E70000001401400010014090F839105A
:10374000212901D0022070478168B1F5805F016AAC
:103750000BD04A1C0262026809785160C18C491E74
:103760000904090CC1840ED017E009880268C1F36E
:103770000801516001690029016A02D0491C0162F7
:10378000ECE7891CFBE70168CA6822F08002CA6086
:103790000068C16841F04001C1600020704700002E
:1037A0000148FEF7D5BF00001C04002010B50548F5
:1037B000FEF7CEFFBDE81040012203490148FFF7A4
:1037C00039B900005C040020BC000020FEE70000C6
:1037D0000FB4054B10B503A9044A029800F014FE7B
:1037E00010BC5DF814FB00009D4C00083401002063
:1037F00003B401984100009850EAC12018BF04208A
:103800004A0D18BF40F0010040F2FF72B2EB515F69
:1038100008BF40F00200012808BF052002B0704731
:103820000907090E002804DB00F1E02080F80014ED
:10383000704700F00F0000F1E02080F8141D704781
:1038400070B5C1482DED020B2DED0E8B82B0119D90
:1038500025F000449FEDBEDB9FEDBFEB84423EDBD5
:10386000A4F140511098A1F17F6108430FD0BC48EA
:10387000844202DC28D1109830B39DED100B02B0C9
:10388000BDEC0E8B02B0BDE8704000F0B0BC9DED09
:10389000100B53EC1D2B51EC100BFCF76AFD9DED4A
:1038A000100B41EC180B53EC1E2B51EC100BFCF7DA
:1038B00060FD53EC182BFCF7F0FE41EC100B02B04E
:1038C000BDEC0E8B02B070BD012000F0D5FC02B043
:1038D000BDEC0E8B02B0BDE8704000F09DBCA1486D
:1038E0009FEDA18B844256DA9DED100BB4F1795F08
:1038F0000ADA51EC100BFFF77BFF042808BF00F039
:103900009BFC9DED100BDAE753EC102B51EC100BE8
:10391000FCF72FFD41EC190B95480621B0EE490A42
:10392000F0EE690A784400F0E6FB53EC192B51ECF9
:10393000100BFCF71EFD41EC1A0B8E48B0EE490A45
:10394000F0EE690A0421784400F0D5FB53EC192B02
:1039500051EC100BFCF70DFD53EC182BFCF79DFE02
:1039600041EC100B51EC1A0B53EC102BFCF73CFF05
:10397000CDE900019DED000B53EC102B9DED100BDC
:1039800051EC100BFCF7F5FC9DED101B53EC112BCB
:10399000FCF783FED2E09DED100B51EC100B01F013
:1039A00071F953EC182BFCF71CFF9FED730BCDE95D
:1039B000000153EC102B9DED000B51EC100BFCF7AC
:1039C000D8FC41EC190B6E480621B0EE490AF0EE26
:1039D000690A784400F08FFB53EC192B51EC100B63
:1039E000FCF7C7FC41EC1B0B6648B0EE490AF0EE51
:1039F000690A0421784400F07EFB53EC192B51EC4A
:103A0000100BFCF7B6FC53EC182BFCF746FE41EC10
:103A10001C0B51EC190B02F0D7FF41EC180B5A4864
:103A20009FED5BABA04222DC53EC1C2B51EC1B0B3B
:103A3000FCF7DAFECDE900019DED000B51EC180B0F
:103A400053EC102BFCF795FC53EC182BFCF725FEE0
:103A500053EC1A2BFCF78DFC53EC1D2BFCF7BEFE30
:103A600053EC1E2BFCF7BDFE41EC100B5FE08DED1F
:103A7000008B002000909DED000B51EC180B53ECD7
:103A8000102BFCF70AFE9DED000B41EC1E0B53ECD6
:103A9000102B51EC100BFCF76CFC53EC192BFCF7C2
:103AA000A0FE53EC1E2BFCF79FFE41EC190B53ECD0
:103AB0001C2B51EC1B0BFCF797FE41EC1B0B53EC42
:103AC0001A2B51EC190BFCF754FC53EC1D2BFCF793
:103AD00088FE41EC190B53EC1A2B51EC180BFCF738
:103AE00048FC53EC1B2BFCF744FC53EC192BFCF764
:103AF00075FE9DED000B41EC180B53EC1A2B51ECAD
:103B0000100BFCF736FC9FED249B53EC192BFCF7B4
:103B100068FE41EC100B51EC180B53EC102BFCF72A
:103B20005DFE53EC192BFCF75CFE41EC100B002DF5
:103B30003FF7C5AE51EC100B81F0004141EC100B8A
:103B4000BDE60000000000000000F03F00000000A3
:103B5000075C143326A6913C182D4454FB21F93FF1
:103B60000000F07F0000E03F000000000000F03F98
:103B70008840000096400000000000000000E03F88
:103B8000DA3F0000E83F00003333EF3F0000000061
:103B90000000000000000040182D4454FB21E93FC4
:103BA00070B59B482DED020B2DED068B079D25F082
:103BB0000044A04218DC9748844202DC0AD10698EF
:103BC00040B19DED060BBDEC068B02B0BDE8704028
:103BD00000F00DBB002DCCBF9FED8F0B9FED900B28
:103BE000BDEC068B02B070BD8F48A04215DD8F483A
:103BF000A042D8BF4FF0FF3458DD9DED060B51ECCD
:103C0000100BFFF7F5FD042808BF00F015FB9DED34
:103C1000060BBDEC068B02B070BD9DED060B51ECA2
:103C2000100B01F02FF8CDE9060181489FED828B42
:103C3000A0423CDD8248A0421FDD00249FED82AB04
:103C40009DED060B53EC1A2B51EC100BFCF725FDE8
:103C50009DED060B41EC190B53EC1A2B51EC100B9C
:103C6000FCF787FB53EC182BFCF7B8FD53EC192B32
:103C7000FCF7BAFDCDE9060149E09DED060B0124F4
:103C800053EC182B51EC100BFCF707FD9DED060BC8
:103C900041EC190B53EC182B51EC100BFCF79EFD6B
:103CA00053EC192BFCF7A0FDCDE906012FE0684885
:103CB000A0421FDD02249FED689B9DED060B53EC97
:103CC000192B51EC100BFCF754FB53EC182BFCF7A1
:103CD000E4FC9DED060B41EC180B53EC192B51EC59
:103CE000100BFCF77BFD53EC182BFCF77DFDCDE9A9
:103CF00006010CE09DED060B032453EC102B9FED09
:103D0000580B51EC100BFCF76FFDCDE906019DED52
:103D1000060B53EC102B51EC100BFCF72AFB41EC7B
:103D2000180B53EC182BFCF724FB41EC190B4E48F5
:103D30000621B0EE490AF0EE690A784400F0DBF99A
:103D400053EC182B51EC100BFCF713FB41EC180B48
:103D50004648B0EE490AF0EE690A0521784400F0C1
:103D6000CAF953EC192B51EC100BFCF702FB41EC98
:103D7000100B51EC180B53EC102B002C0EDAFCF747
:103D80008CFC9DED061B53EC112BFCF7F2FA9DED1C
:103D9000061B53EC112BFCF724FD35E0FCF77DFCF2
:103DA0009DED061B53EC112BFCF7E3FA41EC100BD5
:103DB0002F48784400EBC40090ED001B51EC100B31
:103DC00053EC112BFCF70AFD9DED061B53EC112B58
:103DD000FCF704FD41EC100B2648784400EBC400CE
:103DE00090ED001B51EC100B53EC112BFCF7F9FC80
:103DF00041EC100B002DA2BFBDEC068B02B070BDD4
:103E000051EC100B81F0004141EC100B01E7000078
:103E1000000010440000F07F182D4454FB21F93FAE
:103E2000182D4454FB21F9BF0000DC3F0000203E68
:103E30000000F33F00000000000000000000F03F21
:103E40000000E63F0000000000000000000000400D
:103E50000080034000000000000000000000F83F68
:103E6000000000000000F0BF2A3D0000E03C000020
:103E70006A3C0000223C000070B56B4E2DED040B37
:103E80002DED028B82B0DDF81CC0DDE905235C421C
:103E90002CF000411C4341EAD474049D22F0004000
:103EA000B44205D86C422C4340EAD474B4420BD9D6
:103EB0009DED061B9DED040B02B0BDEC028B04B022
:103EC000BDE8704000F09DB9ACF14054A4F17F64AE
:103ED0001C430BD0022404EAAC7444EAD2740543B8
:103EE0009FED538B9FED542B07D015E09DED040BF8
:103EF00051EC100B00F034FE42E0002C11BF012CFD
:103F00009DED040B02B0BDEC028B04BF04B070BD8C
:103F1000022C38D0032C3BD00B439FED491B9FED67
:103F20004A0B0AD0B14218D1B04209D121F08041E8
:103F300020F08040079105900FE0002A15DA10E08C
:103F4000434B7B44002C08BF93ED000B0DD0012C9C
:103F500010D0022C17D0032C1AD0B0421DD1002A49
:103F600003DAB0EE410AF0EE610A02B0BDEC028B5A
:103F700004B070BD93ED000B51EC100B81F00041CB
:103F800041EC100BF1E7B0EE480AF0EE680AECE7FE
:103F9000B0EE420AF0EE620AE7E7401A00153C284C
:103FA000C8BF8DED000B19DCBCF1000FBEBF10F1D6
:103FB0003C0F9FED290B8DED000B0FDB9DED060BEC
:103FC00053EC102B9DED040B51EC100BFCF70CFC8B
:103FD00000F058FE00F0C4FDCDE90001002C08BF40
:103FE0009DED000BC1D0012C10D0022C9FED1C0BBD
:103FF00053EC102B9DED000B51EC100B0DD0FCF78A
:10400000EDFB53EC182BFCF7E9FBB9E7019880F0C6
:10401000004001909DED000BA7E7FCF7DFFB53ECA0
:10402000182BFCF7DEFBABE70000F07F0000000080
:10403000182D4454FB210940182D4454FB2109C07C
:10404000182D4454FB21F9BF182D4454FB21F93F8E
:10405000523B0000000000000000000000000000D3
:10406000075C143326A6A13C2DED020B019820F02D
:10407000004001909DED000B02B0704700B52DEDA2
:10408000048BB0EE409AF0EE609A83B051EC190BBD
:10409000FCF719FC41EC180B18EE100A18EE901AF8
:1040A0008DED008B002818BF0120084320F0004050
:1040B000C0F17F6000F1E040C00F14D019EE101A7B
:1040C00019EE900A8DED009B002918BF01210843CD
:1040D00020F00040C0F17F6000F1E040C00F04BF5D
:1040E000012000F0C9F8B0EE480A03B0F0EE680A0B
:1040F000BDEC048B00BD70B504462DED028B4D1E4A
:1041000000EBC500B0EE408AF0EE608A90ED000B47
:1041100035F0060017D053EC182B51EC100BFCF7C0
:1041200028F941EC100B6D1E04EBC50090ED001B4F
:1041300051EC100B53EC112BFCF7AFFA41EC100BC8
:1041400035F00600E7D1022D36D0042D1CD0062D07
:104150001CBFBDEC028B70BD53EC182B51EC100B47
:10416000FCF707F994ED0A1B53EC112BFCF795FAB9
:1041700053EC182BFCF7FDF894ED081B53EC112BB6
:10418000FCF78BFA41EC100B53EC182B51EC100B95
:10419000FCF7EFF894ED061B53EC112BFCF77DFABE
:1041A00053EC182BFCF7E5F894ED040B53EC102BB3
:1041B000FCF773FA41EC100B53EC182B51EC100B7D
:1041C000FCF7D7F894ED021B53EC112BFCF765FAC2
:1041D00053EC182BFCF7CDF894ED001B53EC112B8E
:1041E000FCF75BFABDEC028B41EC100B70BD10B517
:1041F00053EC102B51EC100BFCF74FFA41EC100B69
:1042000010BD10B553EC112B51EC100BFCF745FA17
:1042100041EC100B10BD00009FED050B10B553ECE9
:10422000102B51EC100BFCF7DFFA41EC100B10BD1A
:1042300000000000000000009FED050B10B553ECDE
:10424000102B51EC100BFCF794F841EC100B10BD47
:10425000000000000000001002E008C8121F08C1A2
:10426000002AFAD170477047002001E001C1121FF7
:10427000002AFBD170470000014908607047000028
:10428000380100202DE9FF5F82B00021DDE9043014
:10429000020DDDF840B0034318D044F61050A2F2EE
:1042A000FF3242431514119801281FD0A5EB0B00D3
:1042B000401C5FEA000A4FF000064E4FDFF83891CD
:1042C000B046504615D5CAF1000413E011980124F8
:1042D0004AA3012801D16FEA0B010298119AC0E9A3
:1042E0000031C0E9024206B0BDE8F09FCBF100000A
:1042F000DFE704460021404A491842EB0450CDE96B
:10430000001012E0E00707D032463B4640464946DF
:10431000FCF72FF88046894632463B461046194640
:10432000FCF727F806460F466410002CEAD1DDE9B9
:104330000401DDE90023BAF1000F06DAFCF719F8F1
:1043400042464B46FCF715F805E0FCF74DFA4246AD
:104350004B46FCF749FA04460E460022284BFCF770
:104360009FF803D84FF0FF30014607E00022254BAD
:1043700020463146FCF791F9FCF7F6FA102409E0E3
:10438000002C0ADB0A220023FBF78CFF039B303250
:104390001A55641E50EA0102F2D1641C039AC4F15A
:1043A00011031444119A012A03D0012208430DD1AC
:1043B0000AE0084304D000204FF0110B119072E77F
:1043C000A3EB0B056D1E0DE05B4504DD4FF0000215
:1043D00005F1010504E003DA4FF00002A5F1010543
:1043E000002AECD002981199C0E90231C0E90045D9
:1043F00079E70000000014400000F03F30000000AA
:104400000000F0430000E03F2DE9FF4F95B09B46D0
:104410008946064600250FE2252877D10024274645
:10442000F84A0121059400E0044316F8013F203BBF
:1044300001FA03F01042F7D130782A2811D06FF03A
:104440002F033078A0F13002092A16D8059A44F0DB
:10445000020402EB820203EB42021044761C059038
:10446000EFE759F8042B0592002A03DA504244F48E
:104470000054059044F00204761C30782E2816D1A2
:1044800016F8010F44F004042A280DD06FF02F0213
:104490003078A0F13003092B09D807EB870302EB32
:1044A0004303C718761CF3E759F8047B761C307871
:1044B0006C280FD006DC4C2817D068280DD06A284D
:1044C00014D104E0742810D07A280FD10DE044F400
:1044D00000140AE044F4801401E044F440147278BB
:1044E000824202D104F58014761C761C307866284E
:1044F0000BD013DC582877D009DC002875D045286C
:10450000F6D04628F4D047281AD19DE118E0632858
:1045100035D0642879D0652812D195E1702873D000
:1045200008DC6728F1D069286FD06E280DD06F287D
:1045300006D1B5E073282CD0752875D0782874D0B2
:104540005A46179990476D1C75E1C4F30250022832
:1045500009D003280DD0D9F8001004280DD00D6023
:1045600009F1040967E1D9F80010EA17C1E900521E
:10457000F6E7D9F800100D80F2E70D70F0E719F8B2
:10458000041B8DF8001000208DF80100EA46012080
:1045900003E059F804AB4FF0FF3061074FF0000122
:1045A00002D40DE008F101018846B9420FDA8045D6
:1045B000F8DB1AF808100029F4D108E008F101012D
:1045C00088468142FADB1AF808100029F6D10598CE
:1045D0005B46A0EB080721463846179A00F094FA8C
:1045E000284400EB080507E04DE029E10DE01AF84A
:1045F000010B5A4617999047B8F10108F7D25B466C
:1046000021463846179A13E142E00A220092C4F389
:1046100002524FF0000A022A08D059F804CB032AAC
:104620004FEAEC710AD00DE029E02AE009F1070118
:1046300021F00702F2E802C1914609E00FFA8CFC72
:104640004FEAEC71042A03D14FFA8CFC4FEAEC716B
:10465000002907DA0A460021DCF1000C61EB0201B7
:104660002D2202E0220504D52B228DF80420012200
:1046700003E0E20701D02022F7E7904659E00A2143
:1046800002E010220DE010214FF0000A00910BE033
:1046900010224FF0000A44F004040827009203E0BF
:1046A00008224FF0000A0092C4F30252022A05D0F9
:1046B00059F804CB0021032A08D009E009F10701C9
:1046C00021F00702F2E802C1914605E01FFA8CFCD6
:1046D000042A01D10CF0FF0C4FF00008220728D566
:1046E000702806D0009B83F0100353EA0A0305D01C
:1046F0000EE040228DF80420012208E05CEA01026D
:1047000006D030228DF804208DF805000222904654
:10471000009B83F0080353EA0A030AD15CEA010212
:1047200001D1620705D530228DF804204FF0010831
:104730007F1E582804D034A003900EA802900DE0EC
:1047400036A0F9E753466046009AFBF7ABFD844676
:104750000398825C0298401E029002705CEA01009D
:10476000F0D1029806A9081A00F1200A600702D5C4
:1047700024F4803400E00127574502DDA7EB0A004E
:1047800000E0002000EB0A01009005984144401A27
:104790000590E00306D45B462146179A059800F081
:1047A000B3F90544002706E001A85A46C05D1799F1
:1047B00090476D1C7F1C4745F6DBE0030CD55B463C
:1047C0002146179A059800F09FF9054404E030202F
:1047D0005A46179990476D1C0099481E0090002971
:1047E000F5DC08E0029802995A460078491C0291CB
:1047F000179990476D1CBAF10001AAF1010AF1DC8A
:1048000065E1000009280100303132333435363794
:10481000383961626364656600000000303132330C
:1048200034353637383941424344454600000000AC
:1048300000F058F90544761C307800287FF4ECAD80
:1048400019B02846BDE8F08F620700D4062709F1A9
:10485000070222F0070CFCE80223E14603F00048BF
:104860005FEA080C02D00FF2702C0DE05FEA045CE6
:1048700002D50FF2682C07E05FEAC47C02D00FF289
:10488000602C01E0AFF2700C4FF0FF3823F00043D2
:10489000CDF850C065280CD006DC452809D0462844
:1048A0001DD047283DD13DE0662818D067287ED12D
:1048B00038E00021112F01DB112000E0781CCDE948
:1048C000000106A90EA8FFF7DDFCDDE90F010E9A35
:1048D00003910021009207F1010A04914DE04FF08D
:1048E00000400097CDE9011006A90EA8FFF7CAFC09
:1048F000DDE90F0203920E9B11990022DDF80CA056
:104900000093049211B9791C00EB010AB7EB0A007D
:1049100004D4C0F1FF3007F1010A0490AAEB0700AC
:10492000019044E0012F00DA01270021112F01DD61
:10493000112000E03846CDE9000106A90EA8FFF7D6
:10494000A1FCDDE90F010E9A039100210491009270
:10495000BA4621070CD40399514500DA8A46BAF1C8
:10496000010F05DD009AAAF10101515C302908D040
:10497000B84202DA10F1040F06DA0121CDE9011084
:1049800015E0AAF10101E9E7002805DC04990144DA
:104990000491AAEB000102E0411C514500DD8A466A
:1049A0000499401A401C01904FF0004002902007EB
:1049B00004D40198504501DBCDF8048000208DF827
:1049C0004F0002980DF14F07B0F1004F25D02B207A
:1049D0000E9002984FF0020800280CDA4042029034
:1049E0002D200E9007E00A210298FBF78DFD303153
:1049F000029007F8011DB8F10001A8F10108F2DCEE
:104A000002980028EFD1791E0E980870307800F0D7
:104A1000200040F0450007F8020D12A8C01B00F16D
:104A200007081498007800B1012000EB0A010198F2
:104A300001EBE07105984144401A401E0590E003E7
:104A400006D45B462146179A059800F05DF80544A8
:104A50001498007818B15A46179990476D1CE003D6
:104A600024D55B462146179A059800F04DF8054479
:104A70001CE00498002807DBDDE90301884203DD20
:104A80000098405C179901E0179930205A469047EA
:104A9000049805F10105401C04900198401E019006
:104AA00004D12E205A46179990476D1CBAF1000187
:104AB000AAF1010ADDDC05E017F8010B5A46179947
:104AC00090476D1CB8F10001A8F10108F4DC5B46C9
:104AD0002146179A0598ABE62D0000002B00000038
:104AE000200000002DE9F041044600251E4617462F
:104AF000880404D405E039462020B0476D1C641EAC
:104B0000F9D52846BDE8F0812DE9F041044600259D
:104B10001E469046C80301D5302700E020278804B0
:104B200004D505E041463846B0476D1C641EF9D5F2
:104B30002846BDE8F081D0ED000AF4EEC00AF1EE9F
:104B400010FA01DD80ED000AD0ED000AB1EE400A56
:104B5000F4EEC00AF1EE10FA01D280ED000A7047BF
:104B600010B541EC100BFFF71BF851EC100B10BD0A
:104B700010B540F2DC50FCF791FD202001F072FEF0
:104B8000234C2449606001601C2001F06BFE6168C9
:104B90008860182001F066FE61684860086801F0CE
:104BA00007F860680068FCF733FD60680221006860
:104BB000FCF7A2F918480068C16841F02001C16003
:104BC000012221461448FDF735FF14480068C168EA
:104BD00041F02001C1600122611C1048FDF72AFF4D
:104BE00000F022F804210E48FDF784FD0C490A204C
:104BF0000968886300F004FE00F09CFB002109486E
:104C0000FDF778FD0749C7200968486310BD00001B
:104C1000BC0000209C0200205C0400209C030020BB
:104C20001C0300205C03002070B50F4D00242846B3
:104C300085F8504085F8514085F87840502152352C
:104C4000FBF77AFB2C606C602C81AC72C5F80B40D2
:104C5000C5F80F40A5F813406C75EC82AC61EC61AF
:104C60002C62AC8470BD0000DC4D0020014601A028
:104C7000FEF7AEBD6572726F7220636F64653A2590
:104C8000640A000082B0CDE9000121F000400190EB
:104C90009DED000B02B051EC100B70470349096801
:104CA0000A685206FCD5C2B24A607047DC03002095
:104CB00030B5048944818A8A6FF0040552BA0281B2
:104CC000CB8A5BBA438003800B8B5BBA1BB293FB2E
:104CD000F5F38380897E8171131B0169B3F5805FD1
:104CE00001DD491E03E013F5805F01DA491C016113
:104CF00002EB41318289891A416130BD898A49BA02
:104D0000018181817047012801D000207047084649
:104D100001F092BE10B5FF4CFF482DED108B94EDC5
:104D2000010AD4ED010A20EE20FA94ED010AD4ED37
:104D3000020A20EE20CA94ED010AD4ED030A60EEC7
:104D400020BA94ED010AD4ED040A60EE20CA94ED75
:104D5000020AD4ED020A20EE20DA94ED020AD4ED24
:104D6000030A20EE209A94ED020AD4ED040A20EE04
:104D700020BA94ED030AD4ED030A60EE20AA94ED64
:104D8000030AD4ED040A20EE20AA94ED040AD4ED1F
:104D9000040A60EE209A90ED040A84ED080A90ED72
:104DA000050A84ED090A90ED060A84ED0A0AB0F9B5
:104DB000001000EE101AB8EEC00A84ED0B0AB0F92C
:104DC000021000EE101AB8EEC00A84ED0C0AB0F919
:104DD000041000EE101AB8EEC00A84ED0D0AB0F906
:104DE000061000EE101AB8EEC00A84ED0E0AB0F9F3
:104DF000081000EE101AB8EEC00A84ED0F0AB0F9E0
:104E00000A0000EE100AB8EEC00A84ED100AFCF7A2
:104E100047FDA064A06C616C401A00EE100AB8EE69
:104E2000400ADFEDBE0AA06CC0EE208A606494EDFB
:104E30000B0AD4ED0B0A94ED0C1A20EE200AD4EDE7
:104E40000C0A00EE810AD4ED0D0A94ED0D1A00EE65
:104E5000810A00F055FBD4ED0B0A60EE800AC4ED28
:104E60000B0AD4ED0C0A60EE800AC4ED0C0AD4EDF6
:104E70000D0A20EE800A84ED0D0A94ED0E0AD4EDA1
:104E80000E0A94ED0F1A20EE200AD4ED0F0A00EE60
:104E9000810AD4ED100A94ED101A00EE810A00F098
:104EA0002FFBD4ED0E0AB6EE001AB0EE008A60EECB
:104EB000800A39EE6CEA7BEE2B1AC4ED0E0AD4EDB3
:104EC0000F0A60EE800AC4ED0F0AD4ED100A20EE3E
:104ED000800A71EE6A0A31EE4D1A84ED100A94EDE3
:104EE0000E0A70EEE9EA31EE692A20EE080A71EE48
:104EF0006ADA60EE2E0A94ED0F0A20EE080A40EE00
:104F00000E0A94ED100A20EE080A40EE210A94EDF4
:104F10000E0A79EE2C1A7BEE6BCA20EE080A60EEC0
:104F2000A00A20EE210AD4ED0F1A61EE881A01EED4
:104F3000820AD4ED101A3AEE4C2A61EE881A01EE7C
:104F4000820AD4ED0E1A3AEE0C2A61EE881A40EE6F
:104F5000000A21EEAC9AD4ED0F1A10EE900A61EE21
:104F6000881A01EE829AD4ED101A61EE881A01EEC9
:104F7000AD9AFBF781FA41EC100BFFF77FF851EC8B
:104F8000100BFBF7A5FA00EE900A7CEE0A2A3FEE22
:104F90004D1A60EE880A69EE083A22EE880A31EE70
:104FA0006A1A60EE8E1A94ED104A2CEE882A31EEC1
:104FB000293A43EEA21A7BEE8B2A20EEAE1A60EE5F
:104FC000A22AD4ED0C0A03EEAC1A43EEAD2A60EE31
:104FD000830AD4ED0D3A43EEC00AD4ED0F3A63EEE6
:104FE000A23A44EE613A94ED0B4A70EEA30AD4ED76
:104FF0000D3A63EE823AF5EEC00A44EE433A94ED80
:10500000103A94ED0E4A23EE013A04EE623A73EE42
:10501000832A94ED0B3A23EE000A94ED0C3A03EE4A
:10502000420A94ED0E2A62EE211A94ED0F2A42EE06
:10503000411A30EE210AF1EE10FA41D0F5EEC02A05
:10504000F1EE10FA3CD0B5EEC00AF1EE10FA37D00E
:10505000D4ED051A9FED321A20EE812A42EE281A6D
:1050600022EE812AC4ED051AD4ED061A42EE281A62
:10507000C4ED061A60EE011A94ED071A01EEA81AA3
:1050800084ED071A94ED081A00EE881AD4ED050A8B
:1050900071EE200AC4ED080AD4ED090A94ED061A4F
:1050A00042EE880A70EE810AC4ED090AD4ED0A0ABC
:1050B00040EE080A94ED070A30EE800A84ED0A0AF1
:1050C00094ED020AD4ED080A94ED091A94ED013A20
:1050D00020EEC00AD4ED030A00EEC10AD4ED040AA2
:1050E00094ED0A1A00EEC10AD4ED080A94ED0A1AEA
:1050F00000EE283A94ED010A20EE200AD4ED030ACE
:1051000000EE810AD4ED040A94ED091A00EEC10AFA
:1051100008E00000C8000020A85100200000FA4468
:105120000AD7233CD4ED021AD4ED090A94ED0A1AE9
:1051300040EE281A94ED010A94ED032AD4ED042AD6
:1051400020EE200AD4ED020A00EEC10AD4ED040AD2
:1051500094ED081A00EE810AD4ED0A0A94ED091ABA
:1051600000EE282A94ED010A20EE200AD4ED020A6E
:1051700000EE810AD4ED030A94ED081A00EEC10A8C
:1051800040EE282A23EE030A01EEA10A02EE020AEB
:1051900002EEA20A00F0B4F963EE000AC4ED010ABF
:1051A00061EE800AC4ED020A62EE000A22EE800A75
:1051B000C4ED030A84ED040ABDEC108B10BD0000A1
:1051C00070B5564C2DED068BF8EE008AB0EE008AD5
:1051D000B7EE00AA94ED030AD4ED030A94ED041A85
:1051E00020EE280A20EE200AD4ED040A60EE880A98
:1051F00000EEC10A30EE0A0A10EE100AFBF73CF985
:1052000094ED020AD4ED030A94ED041A20EE080A84
:1052100041EC190B20EE200AD4ED010A60EE880A59
:1052200000EE810A10EE100AFBF726F941EC100B94
:10523000B0EE491AF0EE691AFEF71EFE9FED389B9C
:1052400051EC100B53EC192BFBF793F8FBF740F9DB
:10525000354D286394ED020AD4ED040A94ED031A47
:1052600020EE280A20EE200AD4ED010A60EE880A1A
:1052700000EE810A10EE100AFBF7FEF841EC100B6D
:10528000FEF7DEFA53EC192B51EC100BFBF771F81B
:10529000FBF71EF9E86294ED020AD4ED020A94EDE0
:1052A000031A20EE280A20EE200AD4ED030A60EE4D
:1052B000880A00EEC10A30EE0A0A10EE100AFBF767
:1052C000DBF894ED030AD4ED040A94ED021A20EE03
:1052D000080A41EC190B20EE200AD4ED010A60EE19
:1052E000880A00EE810A10EE100AFBF7C5F841ECBF
:1052F000100BB0EE491AF0EE691AFEF7BDFD9FEDF6
:105300000B1B51EC100B53EC112BFBF732F8FBF796
:10531000DFF8A862BDEC068B70BD0000C80000205D
:105320006666666666A64CC0A8510020666666661C
:1053300066A64C4010B559482DED0A8BB0F9061001
:10534000B0F908009FED569BDFED57BA574C9FED23
:10535000588A9FED58BADFED58AA9FED58AADFEDA5
:10536000588A00294EDA9FED57CA00282ADA91FBA5
:10537000F0F0FBF770F841EC100BFEF775FE53EC04
:10538000192B51EC100BFBF78BF80AD8C4ED01BABE
:1053900084ED028A9FED4C0A84ED030A9FED4B0ACF
:1053A0000BE09FED4B0A84ED010A9FED4A0A84ED64
:1053B000020A84ED03BA9FED480A84ED040ABDECAD
:1053C0000A8B10BDFBDD91FBF0F0FBF744F841ECDC
:1053D000100BFEF749FE53EC192B51EC100BFBF7A9
:1053E0005FF884ED01CA06D884ED028AC4ED03AAF1
:1053F0009FED3A0AE1E784ED02AAC4ED038A9FED2E
:10540000380ADAE7DBDD00289FED36CA22DD91FBA2
:10541000F0F0FBF720F841EC100BFEF725FE53EC03
:10542000192B51EC100BFBF73BF80AD89FED2E0A15
:1054300084ED010AC4ED02AA84ED038AC4ED04BA26
:10544000BDE79FED2A0A84ED010AC4ED028A84EDCE
:1054500003AAB2E7B3DA91FBF0F0FAF7FCFF41ECF4
:10546000100BFEF701FE53EC192B51EC100BFBF760
:1054700017F884ED01CA08D89FED1D0A84ED020AD1
:1054800084ED038A9FED1B0A97E79FED1B0A84EDCD
:1054900002BA84ED030A9FED190A8EE7A851002095
:1054A000000000000000F03F0AD7A3BBC8000020A6
:1054B000A8C64BBEE17A543F355E7ABF68910DBFF6
:1054C000E17A54BF0AD7A33BBE9F7A3F4ED111BCAD
:1054D0006F1203BC7B140EBF6F1203BBA69B443C30
:1054E00099BB16BB0AD7233B52499D3A99BB163B41
:1054F000355E7A3F6F12033C295C0FBFBC74933B4F
:1055000010EE100AF6EE000A074960EE200AA1EB41
:10551000600000EE100A20EE801AF7EE080A41EE55
:10552000400A20EE800A7047DF59375F06220146A5
:10553000492000F0DBBA10B530216A2000F00EFBE4
:105540000A20FCF7ABF80D21242000F007FB0A200D
:10555000FCF7A4F80E21282000F000FB0A20FCF73D
:105560009DF88E21312000F0F9FA0A20FCF796F818
:1055700001210B2000F07BF80A20FCF78FF80020B7
:1055800000F059F8102801D0012010BD01210B2096
:1055900000F06DF80A20FCF781F800210A2000F0E5
:1055A00066F80A2000F047F808B1022010BD0A2072
:1055B000FCF774F800210B2000F059F80B2000F0E4
:1055C0003AF808B1032010BD0A20FCF767F824213F
:1055D000412000F04CF8412000F02DF8242801D0A3
:1055E000042010BD0A20FCF759F8C021422000F029
:1055F0003EF8422000F01FF8C02801D0052010BD61
:105600000A20FCF74BF800212A2000F0A7FA0A2014
:10561000FCF744F80021342000F0A0FA0A20FCF73F
:105620003DF8062203210E2000F09CF96420FCF7CF
:1056300035F8002010BD10B50146322000F08EFA7A
:105640000A20FCF72BF88021342000F087FA0A208A
:10565000FCF724F8352000F021FA0446002134201C
:1056600000F07CFA0A20FCF719F8204610BD70B54E
:105670000D46044600212A2000F070FA0220FCF7B3
:105680000DF82146292000F069FA0220FCF706F8FF
:105690002946642000F062FA0220FBF7FFFF812117
:1056A0002A2000F05BFABDE870400A20FBF7F6BF45
:1056B000FCF704F9FDF79EFDFDF7BCFAFDF79AFA39
:1056C000424841494FF4E13600240160C0E90164D9
:1056D0000C25C460C0E904458461C461FDF7C2F8CB
:1056E00008B172B6FEE73948394980380160C0E92F
:1056F0000164C460C0E904458461C461FDF7B2F887
:1057000008B172B6FEE7FDF711FBFDF723FAFDF7CE
:105710002FFBFDF767FB2D482E4940380160C0E99B
:105720000164C460C0E904458461C461FDF79AF86E
:1057300008B172B6FEE725482749C0380160C0E9C4
:105740000164C460C0E904458461C461FDF78AF85E
:1057500008B172B6FEE7FFF70BFA00F057FA1F4ADE
:1057600000211F4800F08AFA1E4C1C4A0021E0600C
:1057700024321D4800F082FA184A20614832002184
:105780001A4800F07BFA154A60616C320021184813
:1057900000F074FA114AA06190320021154800F01F
:1057A0006DFA0E4AE061B4320021134800F066FA47
:1057B0000A4A2062D8320021104800F05FFA606285
:1057C00000F03EFAFEE70000001401405C040020F7
:1057D000007C0040004800400078004088780008C5
:1057E000293000080000002031300008593000083E
:1057F0004530000821300008F52F0008612F00080F
:1058000030B585B06420FBF749FF752000F046F9FC
:10581000124900241422887011496846FAF773FD72
:105820004FEA0D0505EB4400417815F8140000F02F
:1058300095F90120FBF732FF641CE4B20A2CF1D386
:10584000032000F086F9022000F07EF9FFF773FED6
:1058500000F0D0F805B0002030BD0000C8000020E6
:105860009C79000810B50E2239493B2000F03EF922
:10587000374800F10E04018849BA2180418849BAAD
:105880006180818849BAA180C18849BAA181018912
:10589000628B49BA891AE1814189A28B49BA891A76
:1058A00021828089E18B40BA401A60822948FFF743
:1058B0003DFE2849A4F142004C399FED271ACA6CDD
:1058C0008264B1F85010A0F84C10D0F8421001607A
:1058D000D0F846104160D0F84A108160B4F90C004D
:1058E00000EE100AA4F14200F8EEC00A80EE810A30
:1058F000F3EE050A30EE200A80ED030AB4F90E102B
:1059000000EE101AF8EEC00A9FED140A80EE801A1D
:10591000DFED130AC1EE201AC0ED041AB4F910101D
:1059200001EE101AF8EEC11A81EE801AC1EE201AAB
:10593000C0ED051AB4F9121001EE101AF8EEC11AF2
:1059400081EE801A81EE200A80ED060A10BD00006B
:10595000DC510020140100205CEFA6436F1283414C
:105960003333654270B50E4604460146154628207D
:1059700000F0F4F80220FBF791FE0A21292000F044
:10598000EDF80220FBF78AFE0121642000F0E6F822
:105990000220FBF783FE44F08001252000F0DEF8B2
:1059A0000220FBF77BFE3146262000F0D7F80220CC
:1059B000FBF774FE0321342000F0D0F80220FBF73F
:1059C0006DFE0321672000F0C9F80220FBF766FE98
:1059D00081212A2000F0C2F80620FBF75FFE45F087
:1059E0008001272000F0BAF8BDE870400220FBF7E4
:1059F00055BE00002DE9F041274E002706F10E04A8
:105A00004FF496750E2224493B2000F06FF8318840
:105A1000A08A49BA0844A0827188E08A49BA084439
:105A2000E082B188208B49BA084420833189608B99
:105A300049BA084460837189A08B49BA0844A0839D
:105A4000B189E08B49BA0844E0830520FBF726FEC4
:105A50007F1CAF42D6DBB4F9140090FBF5F0A082B6
:105A6000B4F9160090FBF5F0E082B4F9180090FB51
:105A7000F5F02083B4F91A0090FBF5F06083B4F9D7
:105A80001C0090FBF5F0A083B4F91E0090FBF5F02C
:105A9000E083BDE8F0810000DC510020F8B5104E35
:105AA0000446002240213046FBF7F4FE44F080001B
:105AB0000C4C3725621C20700123511E0A480095AA
:105AC000FCF714FB621C0123511E07480095FCF7EC
:105AD0000DFB012240213046FBF7DCFE6078F8BD6B
